{
  "contractName": "BlankNFT_ERC721",
  "abi": [
    {
      "inputs": [
        {
          "internalType": "string",
          "name": "_collectionURI",
          "type": "string"
        },
        {
          "internalType": "string",
          "name": "_name",
          "type": "string"
        },
        {
          "internalType": "string",
          "name": "_symbol",
          "type": "string"
        },
        {
          "internalType": "address",
          "name": "_userNFTsBox",
          "type": "address"
        }
      ],
      "stateMutability": "nonpayable",
      "type": "constructor"
    },
    {
      "anonymous": false,
      "inputs": [
        {
          "indexed": true,
          "internalType": "address",
          "name": "owner",
          "type": "address"
        },
        {
          "indexed": true,
          "internalType": "address",
          "name": "approved",
          "type": "address"
        },
        {
          "indexed": true,
          "internalType": "uint256",
          "name": "tokenId",
          "type": "uint256"
        }
      ],
      "name": "Approval",
      "type": "event"
    },
    {
      "anonymous": false,
      "inputs": [
        {
          "indexed": true,
          "internalType": "address",
          "name": "owner",
          "type": "address"
        },
        {
          "indexed": true,
          "internalType": "address",
          "name": "operator",
          "type": "address"
        },
        {
          "indexed": false,
          "internalType": "bool",
          "name": "approved",
          "type": "bool"
        }
      ],
      "name": "ApprovalForAll",
      "type": "event"
    },
    {
      "anonymous": false,
      "inputs": [
        {
          "indexed": true,
          "internalType": "address",
          "name": "from",
          "type": "address"
        },
        {
          "indexed": true,
          "internalType": "address",
          "name": "to",
          "type": "address"
        },
        {
          "indexed": true,
          "internalType": "uint256",
          "name": "tokenId",
          "type": "uint256"
        }
      ],
      "name": "Transfer",
      "type": "event"
    },
    {
      "inputs": [
        {
          "internalType": "address",
          "name": "to",
          "type": "address"
        },
        {
          "internalType": "uint256",
          "name": "tokenId",
          "type": "uint256"
        }
      ],
      "name": "approve",
      "outputs": [],
      "stateMutability": "nonpayable",
      "type": "function"
    },
    {
      "inputs": [
        {
          "internalType": "address",
          "name": "owner",
          "type": "address"
        }
      ],
      "name": "balanceOf",
      "outputs": [
        {
          "internalType": "uint256",
          "name": "",
          "type": "uint256"
        }
      ],
      "stateMutability": "view",
      "type": "function"
    },
    {
      "inputs": [
        {
          "internalType": "uint256",
          "name": "tokenId",
          "type": "uint256"
        }
      ],
      "name": "getApproved",
      "outputs": [
        {
          "internalType": "address",
          "name": "",
          "type": "address"
        }
      ],
      "stateMutability": "view",
      "type": "function"
    },
    {
      "inputs": [],
      "name": "id",
      "outputs": [
        {
          "internalType": "uint256",
          "name": "",
          "type": "uint256"
        }
      ],
      "stateMutability": "view",
      "type": "function"
    },
    {
      "inputs": [
        {
          "internalType": "address",
          "name": "owner",
          "type": "address"
        },
        {
          "internalType": "address",
          "name": "operator",
          "type": "address"
        }
      ],
      "name": "isApprovedForAll",
      "outputs": [
        {
          "internalType": "bool",
          "name": "",
          "type": "bool"
        }
      ],
      "stateMutability": "view",
      "type": "function"
    },
    {
      "inputs": [],
      "name": "name",
      "outputs": [
        {
          "internalType": "string",
          "name": "",
          "type": "string"
        }
      ],
      "stateMutability": "view",
      "type": "function"
    },
    {
      "inputs": [
        {
          "internalType": "uint256",
          "name": "tokenId",
          "type": "uint256"
        }
      ],
      "name": "ownerOf",
      "outputs": [
        {
          "internalType": "address",
          "name": "",
          "type": "address"
        }
      ],
      "stateMutability": "view",
      "type": "function"
    },
    {
      "inputs": [
        {
          "internalType": "address",
          "name": "from",
          "type": "address"
        },
        {
          "internalType": "address",
          "name": "to",
          "type": "address"
        },
        {
          "internalType": "uint256",
          "name": "tokenId",
          "type": "uint256"
        }
      ],
      "name": "safeTransferFrom",
      "outputs": [],
      "stateMutability": "nonpayable",
      "type": "function"
    },
    {
      "inputs": [
        {
          "internalType": "address",
          "name": "from",
          "type": "address"
        },
        {
          "internalType": "address",
          "name": "to",
          "type": "address"
        },
        {
          "internalType": "uint256",
          "name": "tokenId",
          "type": "uint256"
        },
        {
          "internalType": "bytes",
          "name": "_data",
          "type": "bytes"
        }
      ],
      "name": "safeTransferFrom",
      "outputs": [],
      "stateMutability": "nonpayable",
      "type": "function"
    },
    {
      "inputs": [
        {
          "internalType": "address",
          "name": "operator",
          "type": "address"
        },
        {
          "internalType": "bool",
          "name": "approved",
          "type": "bool"
        }
      ],
      "name": "setApprovalForAll",
      "outputs": [],
      "stateMutability": "nonpayable",
      "type": "function"
    },
    {
      "inputs": [
        {
          "internalType": "bytes4",
          "name": "interfaceId",
          "type": "bytes4"
        }
      ],
      "name": "supportsInterface",
      "outputs": [
        {
          "internalType": "bool",
          "name": "",
          "type": "bool"
        }
      ],
      "stateMutability": "view",
      "type": "function"
    },
    {
      "inputs": [],
      "name": "symbol",
      "outputs": [
        {
          "internalType": "string",
          "name": "",
          "type": "string"
        }
      ],
      "stateMutability": "view",
      "type": "function"
    },
    {
      "inputs": [
        {
          "internalType": "uint256",
          "name": "index",
          "type": "uint256"
        }
      ],
      "name": "tokenByIndex",
      "outputs": [
        {
          "internalType": "uint256",
          "name": "",
          "type": "uint256"
        }
      ],
      "stateMutability": "view",
      "type": "function"
    },
    {
      "inputs": [
        {
          "internalType": "address",
          "name": "owner",
          "type": "address"
        },
        {
          "internalType": "uint256",
          "name": "index",
          "type": "uint256"
        }
      ],
      "name": "tokenOfOwnerByIndex",
      "outputs": [
        {
          "internalType": "uint256",
          "name": "",
          "type": "uint256"
        }
      ],
      "stateMutability": "view",
      "type": "function"
    },
    {
      "inputs": [],
      "name": "totalSupply",
      "outputs": [
        {
          "internalType": "uint256",
          "name": "",
          "type": "uint256"
        }
      ],
      "stateMutability": "view",
      "type": "function"
    },
    {
      "inputs": [
        {
          "internalType": "address",
          "name": "from",
          "type": "address"
        },
        {
          "internalType": "address",
          "name": "to",
          "type": "address"
        },
        {
          "internalType": "uint256",
          "name": "tokenId",
          "type": "uint256"
        }
      ],
      "name": "transferFrom",
      "outputs": [],
      "stateMutability": "nonpayable",
      "type": "function"
    },
    {
      "inputs": [],
      "name": "getCreator",
      "outputs": [
        {
          "internalType": "address",
          "name": "",
          "type": "address"
        }
      ],
      "stateMutability": "view",
      "type": "function"
    },
    {
      "inputs": [
        {
          "internalType": "string",
          "name": "_uri",
          "type": "string"
        }
      ],
      "name": "mint",
      "outputs": [],
      "stateMutability": "nonpayable",
      "type": "function"
    },
    {
      "inputs": [
        {
          "internalType": "uint256",
          "name": "_id",
          "type": "uint256"
        },
        {
          "internalType": "string",
          "name": "_uri",
          "type": "string"
        }
      ],
      "name": "setTokenURI",
      "outputs": [],
      "stateMutability": "nonpayable",
      "type": "function"
    },
    {
      "inputs": [
        {
          "internalType": "uint256",
          "name": "tokenId",
          "type": "uint256"
        }
      ],
      "name": "tokenURI",
      "outputs": [
        {
          "internalType": "string",
          "name": "",
          "type": "string"
        }
      ],
      "stateMutability": "view",
      "type": "function"
    },
    {
      "inputs": [
        {
          "internalType": "address",
          "name": "_user",
          "type": "address"
        }
      ],
      "name": "getURIs",
      "outputs": [
        {
          "internalType": "string[]",
          "name": "",
          "type": "string[]"
        }
      ],
      "stateMutability": "view",
      "type": "function"
    },
    {
      "inputs": [
        {
          "internalType": "address",
          "name": "_owner",
          "type": "address"
        },
        {
          "internalType": "uint256",
          "name": "_limit",
          "type": "uint256"
        },
        {
          "internalType": "uint256",
          "name": "_offset",
          "type": "uint256"
        }
      ],
      "name": "getOwnersNftsURIs",
      "outputs": [
        {
          "internalType": "string[]",
          "name": "",
          "type": "string[]"
        }
      ],
      "stateMutability": "view",
      "type": "function"
    },
    {
      "inputs": [],
      "name": "getLatestURI",
      "outputs": [
        {
          "internalType": "string",
          "name": "",
          "type": "string"
        }
      ],
      "stateMutability": "view",
      "type": "function"
    }
  ],
  "bytecode": "0x60806040526040518060400160405280600581526020017f2e6a736f6e000000000000000000000000000000000000000000000000000000815250600d908051906020019062000051929190620001a7565b503480156200005f57600080fd5b5060405162003e9c38038062003e9c833981810160405281019062000085919062000459565b828281600090805190602001906200009f929190620001a7565b508060019080519060200190620000b8929190620001a7565b5050506001600a8190555033600c60006101000a81548173ffffffffffffffffffffffffffffffffffffffff021916908373ffffffffffffffffffffffffffffffffffffffff1602179055508073ffffffffffffffffffffffffffffffffffffffff16630e4a48fc30600c60009054906101000a900473ffffffffffffffffffffffffffffffffffffffff168787876040518663ffffffff1660e01b81526004016200016995949392919062000596565b600060405180830381600087803b1580156200018457600080fd5b505af115801562000199573d6000803e3d6000fd5b50505050505050506200066c565b828054620001b59062000637565b90600052602060002090601f016020900481019282620001d9576000855562000225565b82601f10620001f457805160ff191683800117855562000225565b8280016001018555821562000225579182015b828111156200022457825182559160200191906001019062000207565b5b50905062000234919062000238565b5090565b5b808211156200025357600081600090555060010162000239565b5090565b6000604051905090565b600080fd5b600080fd5b600080fd5b600080fd5b6000601f19601f8301169050919050565b7f4e487b7100000000000000000000000000000000000000000000000000000000600052604160045260246000fd5b620002c08262000275565b810181811067ffffffffffffffff82111715620002e257620002e162000286565b5b80604052505050565b6000620002f762000257565b9050620003058282620002b5565b919050565b600067ffffffffffffffff82111562000328576200032762000286565b5b620003338262000275565b9050602081019050919050565b60005b838110156200036057808201518184015260208101905062000343565b8381111562000370576000848401525b50505050565b60006200038d62000387846200030a565b620002eb565b905082815260208101848484011115620003ac57620003ab62000270565b5b620003b984828562000340565b509392505050565b600082601f830112620003d957620003d86200026b565b5b8151620003eb84826020860162000376565b91505092915050565b600073ffffffffffffffffffffffffffffffffffffffff82169050919050565b60006200042182620003f4565b9050919050565b620004338162000414565b81146200043f57600080fd5b50565b600081519050620004538162000428565b92915050565b6000806000806080858703121562000476576200047562000261565b5b600085015167ffffffffffffffff81111562000497576200049662000266565b5b620004a587828801620003c1565b945050602085015167ffffffffffffffff811115620004c957620004c862000266565b5b620004d787828801620003c1565b935050604085015167ffffffffffffffff811115620004fb57620004fa62000266565b5b6200050987828801620003c1565b92505060606200051c8782880162000442565b91505092959194509250565b620005338162000414565b82525050565b600081519050919050565b600082825260208201905092915050565b6000620005628262000539565b6200056e818562000544565b93506200058081856020860162000340565b6200058b8162000275565b840191505092915050565b600060a082019050620005ad600083018862000528565b620005bc602083018762000528565b8181036040830152620005d0818662000555565b90508181036060830152620005e6818562000555565b90508181036080830152620005fc818462000555565b90509695505050505050565b7f4e487b7100000000000000000000000000000000000000000000000000000000600052602260045260246000fd5b600060028204905060018216806200065057607f821691505b60208210810362000666576200066562000608565b5b50919050565b613820806200067c6000396000f3fe608060405234801561001057600080fd5b506004361061014d5760003560e01c806342842e0e116100c3578063a22cb4651161007c578063a22cb465146103d8578063af640d0f146103f4578063b88d4fde14610412578063c87b56dd1461042e578063d85d3d271461045e578063e985e9c51461047a5761014d565b806342842e0e146102de5780634802693d146102fa5780634f6ccce71461032a5780636352211e1461035a57806370a082311461038a57806395d89b41146103ba5761014d565b80630ee2cb10116101155780630ee2cb101461020a578063162094c41461022857806318160ddd1461024457806323b872dd14610262578063247999fa1461027e5780632f745c59146102ae5761014d565b806301ffc9a71461015257806306fdde0314610182578063081812fc146101a0578063088ce14d146101d0578063095ea7b3146101ee575b600080fd5b61016c600480360381019061016791906122c3565b6104aa565b604051610179919061230b565b60405180910390f35b61018a610524565b60405161019791906123bf565b60405180910390f35b6101ba60048036038101906101b59190612417565b6105b6565b6040516101c79190612485565b60405180910390f35b6101d861063b565b6040516101e591906123bf565b60405180910390f35b610208600480360381019061020391906124cc565b6106e0565b005b6102126107f7565b60405161021f9190612485565b60405180910390f35b610242600480360381019061023d9190612641565b610821565b005b61024c61096d565b60405161025991906126ac565b60405180910390f35b61027c600480360381019061027791906126c7565b61097a565b005b6102986004803603810190610293919061271a565b6109da565b6040516102a59190612879565b60405180910390f35b6102c860048036038101906102c391906124cc565b610bb7565b6040516102d591906126ac565b60405180910390f35b6102f860048036038101906102f391906126c7565b610c5c565b005b610314600480360381019061030f919061289b565b610c7c565b6040516103219190612879565b60405180910390f35b610344600480360381019061033f9190612417565b610d37565b60405161035191906126ac565b60405180910390f35b610374600480360381019061036f9190612417565b610da8565b6040516103819190612485565b60405180910390f35b6103a4600480360381019061039f919061289b565b610e59565b6040516103b191906126ac565b60405180910390f35b6103c2610f10565b6040516103cf91906123bf565b60405180910390f35b6103f260048036038101906103ed91906128f4565b610fa2565b005b6103fc610fb8565b60405161040991906126ac565b60405180910390f35b61042c600480360381019061042791906129d5565b610fbe565b005b61044860048036038101906104439190612417565b611020565b60405161045591906123bf565b60405180910390f35b61047860048036038101906104739190612a58565b61114a565b005b610494600480360381019061048f9190612aa1565b61117d565b6040516104a1919061230b565b60405180910390f35b60007f780e9d63000000000000000000000000000000000000000000000000000000007bffffffffffffffffffffffffffffffffffffffffffffffffffffffff1916827bffffffffffffffffffffffffffffffffffffffffffffffffffffffff1916148061051d575061051c82611211565b5b9050919050565b60606000805461053390612b10565b80601f016020809104026020016040519081016040528092919081815260200182805461055f90612b10565b80156105ac5780601f10610581576101008083540402835291602001916105ac565b820191906000526020600020905b81548152906001019060200180831161058f57829003601f168201915b5050505050905090565b60006105c1826112f3565b610600576040517f08c379a00000000000000000000000000000000000000000000000000000000081526004016105f790612bb3565b60405180910390fd5b6004600083815260200190815260200160002060009054906101000a900473ffffffffffffffffffffffffffffffffffffffff169050919050565b6060600b6000600a548152602001908152602001600020805461065d90612b10565b80601f016020809104026020016040519081016040528092919081815260200182805461068990612b10565b80156106d65780601f106106ab576101008083540402835291602001916106d6565b820191906000526020600020905b8154815290600101906020018083116106b957829003601f168201915b5050505050905090565b60006106eb82610da8565b90508073ffffffffffffffffffffffffffffffffffffffff168373ffffffffffffffffffffffffffffffffffffffff160361075b576040517f08c379a000000000000000000000000000000000000000000000000000000000815260040161075290612c45565b60405180910390fd5b8073ffffffffffffffffffffffffffffffffffffffff1661077a61135f565b73ffffffffffffffffffffffffffffffffffffffff1614806107a957506107a8816107a361135f565b61117d565b5b6107e8576040517f08c379a00000000000000000000000000000000000000000000000000000000081526004016107df90612cd7565b60405180910390fd5b6107f28383611367565b505050565b6000600c60009054906101000a900473ffffffffffffffffffffffffffffffffffffffff16905090565b61082a826112f3565b610869576040517f08c379a000000000000000000000000000000000000000000000000000000000815260040161086090612d69565b60405180910390fd5b3373ffffffffffffffffffffffffffffffffffffffff1661088983610da8565b73ffffffffffffffffffffffffffffffffffffffff16146108df576040517f08c379a00000000000000000000000000000000000000000000000000000000081526004016108d690612dd5565b60405180910390fd5b6000600b600084815260200190815260200160002080546108ff90612b10565b905014610941576040517f08c379a000000000000000000000000000000000000000000000000000000000815260040161093890612e67565b60405180910390fd5b80600b600084815260200190815260200160002090805190602001906109689291906121b4565b505050565b6000600880549050905090565b61098b61098561135f565b82611420565b6109ca576040517f08c379a00000000000000000000000000000000000000000000000000000000081526004016109c190612ef9565b60405180910390fd5b6109d58383836114fe565b505050565b606060006109e785610e59565b03610a4257600067ffffffffffffffff811115610a0757610a06612516565b5b604051908082528060200260200182016040528015610a3a57816020015b6060815260200190600190039081610a255790505b509050610bb0565b6000838311610a515782610a53565b835b905060008167ffffffffffffffff811115610a7157610a70612516565b5b604051908082528060200260200182016040528015610aa457816020015b6060815260200190600190039081610a8f5790505b509050600080600090505b83811015610ba857610acd88600188610ac89190612f48565b610bb7565b9150600b60008381526020019081526020016000208054610aed90612b10565b80601f0160208091040260200160405190810160405280929190818152602001828054610b1990612b10565b8015610b665780601f10610b3b57610100808354040283529160200191610b66565b820191906000526020600020905b815481529060010190602001808311610b4957829003601f168201915b5050505050838281518110610b7e57610b7d612f7c565b5b602002602001018190525085610b9390612fab565b95508080610ba090612fd4565b915050610aaf565b508193505050505b9392505050565b6000610bc283610e59565b8210610c03576040517f08c379a0000000000000000000000000000000000000000000000000000000008152600401610bfa9061308e565b60405180910390fd5b600660008473ffffffffffffffffffffffffffffffffffffffff1673ffffffffffffffffffffffffffffffffffffffff168152602001908152602001600020600083815260200190815260200160002054905092915050565b610c7783838360405180602001604052806000815250610fbe565b505050565b60606000610c8983610e59565b905060008167ffffffffffffffff811115610ca757610ca6612516565b5b604051908082528060200260200182016040528015610cda57816020015b6060815260200190600190039081610cc55790505b50905060005b8151811015610d2c57610cfb610cf63383610bb7565b611020565b828281518110610d0e57610d0d612f7c565b5b60200260200101819052508080610d2490612fd4565b915050610ce0565b508092505050919050565b6000610d4161096d565b8210610d82576040517f08c379a0000000000000000000000000000000000000000000000000000000008152600401610d7990613120565b60405180910390fd5b60088281548110610d9657610d95612f7c565b5b90600052602060002001549050919050565b6000806002600084815260200190815260200160002060009054906101000a900473ffffffffffffffffffffffffffffffffffffffff169050600073ffffffffffffffffffffffffffffffffffffffff168173ffffffffffffffffffffffffffffffffffffffff1603610e50576040517f08c379a0000000000000000000000000000000000000000000000000000000008152600401610e47906131b2565b60405180910390fd5b80915050919050565b60008073ffffffffffffffffffffffffffffffffffffffff168273ffffffffffffffffffffffffffffffffffffffff1603610ec9576040517f08c379a0000000000000000000000000000000000000000000000000000000008152600401610ec090613244565b60405180910390fd5b600360008373ffffffffffffffffffffffffffffffffffffffff1673ffffffffffffffffffffffffffffffffffffffff168152602001908152602001600020549050919050565b606060018054610f1f90612b10565b80601f0160208091040260200160405190810160405280929190818152602001828054610f4b90612b10565b8015610f985780601f10610f6d57610100808354040283529160200191610f98565b820191906000526020600020905b815481529060010190602001808311610f7b57829003601f168201915b5050505050905090565b610fb4610fad61135f565b8383611764565b5050565b600a5481565b610fcf610fc961135f565b83611420565b61100e576040517f08c379a000000000000000000000000000000000000000000000000000000000815260040161100590612ef9565b60405180910390fd5b61101a848484846118d0565b50505050565b606061102b826112f3565b61106a576040517f08c379a0000000000000000000000000000000000000000000000000000000008152600401611061906132d6565b60405180910390fd5b6000600b6000848152602001908152602001600020805461108a90612b10565b9050116110a65760405180602001604052806000815250611143565b600b600083815260200190815260200160002080546110c490612b10565b80601f01602080910402602001604051908101604052809291908181526020018280546110f090612b10565b801561113d5780601f106111125761010080835404028352916020019161113d565b820191906000526020600020905b81548152906001019060200180831161112057829003601f168201915b50505050505b9050919050565b61115633600a5461192c565b611162600a5482610821565b600a600081548092919061117590612fd4565b919050555050565b6000600560008473ffffffffffffffffffffffffffffffffffffffff1673ffffffffffffffffffffffffffffffffffffffff16815260200190815260200160002060008373ffffffffffffffffffffffffffffffffffffffff1673ffffffffffffffffffffffffffffffffffffffff16815260200190815260200160002060009054906101000a900460ff16905092915050565b60007f80ac58cd000000000000000000000000000000000000000000000000000000007bffffffffffffffffffffffffffffffffffffffffffffffffffffffff1916827bffffffffffffffffffffffffffffffffffffffffffffffffffffffff191614806112dc57507f5b5e139f000000000000000000000000000000000000000000000000000000007bffffffffffffffffffffffffffffffffffffffffffffffffffffffff1916827bffffffffffffffffffffffffffffffffffffffffffffffffffffffff1916145b806112ec57506112eb8261194a565b5b9050919050565b60008073ffffffffffffffffffffffffffffffffffffffff166002600084815260200190815260200160002060009054906101000a900473ffffffffffffffffffffffffffffffffffffffff1673ffffffffffffffffffffffffffffffffffffffff1614159050919050565b600033905090565b816004600083815260200190815260200160002060006101000a81548173ffffffffffffffffffffffffffffffffffffffff021916908373ffffffffffffffffffffffffffffffffffffffff160217905550808273ffffffffffffffffffffffffffffffffffffffff166113da83610da8565b73ffffffffffffffffffffffffffffffffffffffff167f8c5be1e5ebec7d5bd14f71427d1e84f3dd0314c0f7b2291e5b200ac8c7c3b92560405160405180910390a45050565b600061142b826112f3565b61146a576040517f08c379a000000000000000000000000000000000000000000000000000000000815260040161146190613368565b60405180910390fd5b600061147583610da8565b90508073ffffffffffffffffffffffffffffffffffffffff168473ffffffffffffffffffffffffffffffffffffffff1614806114e457508373ffffffffffffffffffffffffffffffffffffffff166114cc846105b6565b73ffffffffffffffffffffffffffffffffffffffff16145b806114f557506114f4818561117d565b5b91505092915050565b8273ffffffffffffffffffffffffffffffffffffffff1661151e82610da8565b73ffffffffffffffffffffffffffffffffffffffff1614611574576040517f08c379a000000000000000000000000000000000000000000000000000000000815260040161156b906133fa565b60405180910390fd5b600073ffffffffffffffffffffffffffffffffffffffff168273ffffffffffffffffffffffffffffffffffffffff16036115e3576040517f08c379a00000000000000000000000000000000000000000000000000000000081526004016115da9061348c565b60405180910390fd5b6115ee8383836119b4565b6115f9600082611367565b6001600360008573ffffffffffffffffffffffffffffffffffffffff1673ffffffffffffffffffffffffffffffffffffffff16815260200190815260200160002060008282546116499190612f48565b925050819055506001600360008473ffffffffffffffffffffffffffffffffffffffff1673ffffffffffffffffffffffffffffffffffffffff16815260200190815260200160002060008282546116a091906134ac565b92505081905550816002600083815260200190815260200160002060006101000a81548173ffffffffffffffffffffffffffffffffffffffff021916908373ffffffffffffffffffffffffffffffffffffffff160217905550808273ffffffffffffffffffffffffffffffffffffffff168473ffffffffffffffffffffffffffffffffffffffff167fddf252ad1be2c89b69c2b068fc378daa952ba7f163c4a11628f55a4df523b3ef60405160405180910390a461175f838383611ac6565b505050565b8173ffffffffffffffffffffffffffffffffffffffff168373ffffffffffffffffffffffffffffffffffffffff16036117d2576040517f08c379a00000000000000000000000000000000000000000000000000000000081526004016117c99061354e565b60405180910390fd5b80600560008573ffffffffffffffffffffffffffffffffffffffff1673ffffffffffffffffffffffffffffffffffffffff16815260200190815260200160002060008473ffffffffffffffffffffffffffffffffffffffff1673ffffffffffffffffffffffffffffffffffffffff16815260200190815260200160002060006101000a81548160ff0219169083151502179055508173ffffffffffffffffffffffffffffffffffffffff168373ffffffffffffffffffffffffffffffffffffffff167f17307eab39ab6107e8899845ad3d59bd9653f200f220920489ca2b5937696c31836040516118c3919061230b565b60405180910390a3505050565b6118db8484846114fe565b6118e784848484611acb565b611926576040517f08c379a000000000000000000000000000000000000000000000000000000000815260040161191d906135e0565b60405180910390fd5b50505050565b611946828260405180602001604052806000815250611c52565b5050565b60007f01ffc9a7000000000000000000000000000000000000000000000000000000007bffffffffffffffffffffffffffffffffffffffffffffffffffffffff1916827bffffffffffffffffffffffffffffffffffffffffffffffffffffffff1916149050919050565b6119bf838383611cad565b600073ffffffffffffffffffffffffffffffffffffffff168373ffffffffffffffffffffffffffffffffffffffff1603611a01576119fc81611cb2565b611a40565b8173ffffffffffffffffffffffffffffffffffffffff168373ffffffffffffffffffffffffffffffffffffffff1614611a3f57611a3e8382611cfb565b5b5b600073ffffffffffffffffffffffffffffffffffffffff168273ffffffffffffffffffffffffffffffffffffffff1603611a8257611a7d81611e68565b611ac1565b8273ffffffffffffffffffffffffffffffffffffffff168273ffffffffffffffffffffffffffffffffffffffff1614611ac057611abf8282611f39565b5b5b505050565b505050565b6000611aec8473ffffffffffffffffffffffffffffffffffffffff16611fb8565b15611c45578373ffffffffffffffffffffffffffffffffffffffff1663150b7a02611b1561135f565b8786866040518563ffffffff1660e01b8152600401611b379493929190613655565b6020604051808303816000875af1925050508015611b7357506040513d601f19601f82011682018060405250810190611b7091906136b6565b60015b611bf5573d8060008114611ba3576040519150601f19603f3d011682016040523d82523d6000602084013e611ba8565b606091505b506000815103611bed576040517f08c379a0000000000000000000000000000000000000000000000000000000008152600401611be4906135e0565b60405180910390fd5b805181602001fd5b63150b7a0260e01b7bffffffffffffffffffffffffffffffffffffffffffffffffffffffff1916817bffffffffffffffffffffffffffffffffffffffffffffffffffffffff191614915050611c4a565b600190505b949350505050565b611c5c8383611fdb565b611c696000848484611acb565b611ca8576040517f08c379a0000000000000000000000000000000000000000000000000000000008152600401611c9f906135e0565b60405180910390fd5b505050565b505050565b6008805490506009600083815260200190815260200160002081905550600881908060018154018082558091505060019003906000526020600020016000909190919091505550565b60006001611d0884610e59565b611d129190612f48565b9050600060076000848152602001908152602001600020549050818114611df7576000600660008673ffffffffffffffffffffffffffffffffffffffff1673ffffffffffffffffffffffffffffffffffffffff168152602001908152602001600020600084815260200190815260200160002054905080600660008773ffffffffffffffffffffffffffffffffffffffff1673ffffffffffffffffffffffffffffffffffffffff168152602001908152602001600020600084815260200190815260200160002081905550816007600083815260200190815260200160002081905550505b6007600084815260200190815260200160002060009055600660008573ffffffffffffffffffffffffffffffffffffffff1673ffffffffffffffffffffffffffffffffffffffff16815260200190815260200160002060008381526020019081526020016000206000905550505050565b60006001600880549050611e7c9190612f48565b9050600060096000848152602001908152602001600020549050600060088381548110611eac57611eab612f7c565b5b906000526020600020015490508060088381548110611ece57611ecd612f7c565b5b906000526020600020018190555081600960008381526020019081526020016000208190555060096000858152602001908152602001600020600090556008805480611f1d57611f1c6136e3565b5b6001900381819060005260206000200160009055905550505050565b6000611f4483610e59565b905081600660008573ffffffffffffffffffffffffffffffffffffffff1673ffffffffffffffffffffffffffffffffffffffff168152602001908152602001600020600083815260200190815260200160002081905550806007600084815260200190815260200160002081905550505050565b6000808273ffffffffffffffffffffffffffffffffffffffff163b119050919050565b600073ffffffffffffffffffffffffffffffffffffffff168273ffffffffffffffffffffffffffffffffffffffff160361204a576040517f08c379a00000000000000000000000000000000000000000000000000000000081526004016120419061375e565b60405180910390fd5b612053816112f3565b15612093576040517f08c379a000000000000000000000000000000000000000000000000000000000815260040161208a906137ca565b60405180910390fd5b61209f600083836119b4565b6001600360008473ffffffffffffffffffffffffffffffffffffffff1673ffffffffffffffffffffffffffffffffffffffff16815260200190815260200160002060008282546120ef91906134ac565b92505081905550816002600083815260200190815260200160002060006101000a81548173ffffffffffffffffffffffffffffffffffffffff021916908373ffffffffffffffffffffffffffffffffffffffff160217905550808273ffffffffffffffffffffffffffffffffffffffff16600073ffffffffffffffffffffffffffffffffffffffff167fddf252ad1be2c89b69c2b068fc378daa952ba7f163c4a11628f55a4df523b3ef60405160405180910390a46121b060008383611ac6565b5050565b8280546121c090612b10565b90600052602060002090601f0160209004810192826121e25760008555612229565b82601f106121fb57805160ff1916838001178555612229565b82800160010185558215612229579182015b8281111561222857825182559160200191906001019061220d565b5b509050612236919061223a565b5090565b5b8082111561225357600081600090555060010161223b565b5090565b6000604051905090565b600080fd5b600080fd5b60007fffffffff0000000000000000000000000000000000000000000000000000000082169050919050565b6122a08161226b565b81146122ab57600080fd5b50565b6000813590506122bd81612297565b92915050565b6000602082840312156122d9576122d8612261565b5b60006122e7848285016122ae565b91505092915050565b60008115159050919050565b612305816122f0565b82525050565b600060208201905061232060008301846122fc565b92915050565b600081519050919050565b600082825260208201905092915050565b60005b83811015612360578082015181840152602081019050612345565b8381111561236f576000848401525b50505050565b6000601f19601f8301169050919050565b600061239182612326565b61239b8185612331565b93506123ab818560208601612342565b6123b481612375565b840191505092915050565b600060208201905081810360008301526123d98184612386565b905092915050565b6000819050919050565b6123f4816123e1565b81146123ff57600080fd5b50565b600081359050612411816123eb565b92915050565b60006020828403121561242d5761242c612261565b5b600061243b84828501612402565b91505092915050565b600073ffffffffffffffffffffffffffffffffffffffff82169050919050565b600061246f82612444565b9050919050565b61247f81612464565b82525050565b600060208201905061249a6000830184612476565b92915050565b6124a981612464565b81146124b457600080fd5b50565b6000813590506124c6816124a0565b92915050565b600080604083850312156124e3576124e2612261565b5b60006124f1858286016124b7565b925050602061250285828601612402565b9150509250929050565b600080fd5b600080fd5b7f4e487b7100000000000000000000000000000000000000000000000000000000600052604160045260246000fd5b61254e82612375565b810181811067ffffffffffffffff8211171561256d5761256c612516565b5b80604052505050565b6000612580612257565b905061258c8282612545565b919050565b600067ffffffffffffffff8211156125ac576125ab612516565b5b6125b582612375565b9050602081019050919050565b82818337600083830152505050565b60006125e46125df84612591565b612576565b905082815260208101848484011115612600576125ff612511565b5b61260b8482856125c2565b509392505050565b600082601f8301126126285761262761250c565b5b81356126388482602086016125d1565b91505092915050565b6000806040838503121561265857612657612261565b5b600061266685828601612402565b925050602083013567ffffffffffffffff81111561268757612686612266565b5b61269385828601612613565b9150509250929050565b6126a6816123e1565b82525050565b60006020820190506126c1600083018461269d565b92915050565b6000806000606084860312156126e0576126df612261565b5b60006126ee868287016124b7565b93505060206126ff868287016124b7565b925050604061271086828701612402565b9150509250925092565b60008060006060848603121561273357612732612261565b5b6000612741868287016124b7565b935050602061275286828701612402565b925050604061276386828701612402565b9150509250925092565b600081519050919050565b600082825260208201905092915050565b6000819050602082019050919050565b600082825260208201905092915050565b60006127b582612326565b6127bf8185612799565b93506127cf818560208601612342565b6127d881612375565b840191505092915050565b60006127ef83836127aa565b905092915050565b6000602082019050919050565b600061280f8261276d565b6128198185612778565b93508360208202850161282b85612789565b8060005b85811015612867578484038952815161284885826127e3565b9450612853836127f7565b925060208a0199505060018101905061282f565b50829750879550505050505092915050565b600060208201905081810360008301526128938184612804565b905092915050565b6000602082840312156128b1576128b0612261565b5b60006128bf848285016124b7565b91505092915050565b6128d1816122f0565b81146128dc57600080fd5b50565b6000813590506128ee816128c8565b92915050565b6000806040838503121561290b5761290a612261565b5b6000612919858286016124b7565b925050602061292a858286016128df565b9150509250929050565b600067ffffffffffffffff82111561294f5761294e612516565b5b61295882612375565b9050602081019050919050565b600061297861297384612934565b612576565b90508281526020810184848401111561299457612993612511565b5b61299f8482856125c2565b509392505050565b600082601f8301126129bc576129bb61250c565b5b81356129cc848260208601612965565b91505092915050565b600080600080608085870312156129ef576129ee612261565b5b60006129fd878288016124b7565b9450506020612a0e878288016124b7565b9350506040612a1f87828801612402565b925050606085013567ffffffffffffffff811115612a4057612a3f612266565b5b612a4c878288016129a7565b91505092959194509250565b600060208284031215612a6e57612a6d612261565b5b600082013567ffffffffffffffff811115612a8c57612a8b612266565b5b612a9884828501612613565b91505092915050565b60008060408385031215612ab857612ab7612261565b5b6000612ac6858286016124b7565b9250506020612ad7858286016124b7565b9150509250929050565b7f4e487b7100000000000000000000000000000000000000000000000000000000600052602260045260246000fd5b60006002820490506001821680612b2857607f821691505b602082108103612b3b57612b3a612ae1565b5b50919050565b7f4552433732313a20617070726f76656420717565727920666f72206e6f6e657860008201527f697374656e7420746f6b656e0000000000000000000000000000000000000000602082015250565b6000612b9d602c83612331565b9150612ba882612b41565b604082019050919050565b60006020820190508181036000830152612bcc81612b90565b9050919050565b7f4552433732313a20617070726f76616c20746f2063757272656e74206f776e6560008201527f7200000000000000000000000000000000000000000000000000000000000000602082015250565b6000612c2f602183612331565b9150612c3a82612bd3565b604082019050919050565b60006020820190508181036000830152612c5e81612c22565b9050919050565b7f4552433732313a20617070726f76652063616c6c6572206973206e6f74206f7760008201527f6e6572206e6f7220617070726f76656420666f7220616c6c0000000000000000602082015250565b6000612cc1603883612331565b9150612ccc82612c65565b604082019050919050565b60006020820190508181036000830152612cf081612cb4565b9050919050565b7f45524337323155524953746f726167653a2055524920736574206f66206e6f6e60008201527f6578697374656e7420746f6b656e000000000000000000000000000000000000602082015250565b6000612d53602e83612331565b9150612d5e82612cf7565b604082019050919050565b60006020820190508181036000830152612d8281612d46565b9050919050565b7f596f7520617265206e6f7420616e206f776e6572000000000000000000000000600082015250565b6000612dbf601483612331565b9150612dca82612d89565b602082019050919050565b60006020820190508181036000830152612dee81612db2565b9050919050565b7f596f75206861766520616c7265616479207365742075702074686520746f6b6560008201527f6e20555249000000000000000000000000000000000000000000000000000000602082015250565b6000612e51602583612331565b9150612e5c82612df5565b604082019050919050565b60006020820190508181036000830152612e8081612e44565b9050919050565b7f4552433732313a207472616e736665722063616c6c6572206973206e6f74206f60008201527f776e6572206e6f7220617070726f766564000000000000000000000000000000602082015250565b6000612ee3603183612331565b9150612eee82612e87565b604082019050919050565b60006020820190508181036000830152612f1281612ed6565b9050919050565b7f4e487b7100000000000000000000000000000000000000000000000000000000600052601160045260246000fd5b6000612f53826123e1565b9150612f5e836123e1565b925082821015612f7157612f70612f19565b5b828203905092915050565b7f4e487b7100000000000000000000000000000000000000000000000000000000600052603260045260246000fd5b6000612fb6826123e1565b915060008203612fc957612fc8612f19565b5b600182039050919050565b6000612fdf826123e1565b91507fffffffffffffffffffffffffffffffffffffffffffffffffffffffffffffffff820361301157613010612f19565b5b600182019050919050565b7f455243373231456e756d657261626c653a206f776e657220696e646578206f7560008201527f74206f6620626f756e6473000000000000000000000000000000000000000000602082015250565b6000613078602b83612331565b91506130838261301c565b604082019050919050565b600060208201905081810360008301526130a78161306b565b9050919050565b7f455243373231456e756d657261626c653a20676c6f62616c20696e646578206f60008201527f7574206f6620626f756e64730000000000000000000000000000000000000000602082015250565b600061310a602c83612331565b9150613115826130ae565b604082019050919050565b60006020820190508181036000830152613139816130fd565b9050919050565b7f4552433732313a206f776e657220717565727920666f72206e6f6e657869737460008201527f656e7420746f6b656e0000000000000000000000000000000000000000000000602082015250565b600061319c602983612331565b91506131a782613140565b604082019050919050565b600060208201905081810360008301526131cb8161318f565b9050919050565b7f4552433732313a2062616c616e636520717565727920666f7220746865207a6560008201527f726f206164647265737300000000000000000000000000000000000000000000602082015250565b600061322e602a83612331565b9150613239826131d2565b604082019050919050565b6000602082019050818103600083015261325d81613221565b9050919050565b7f4552433732314d657461646174613a2055524920717565727920666f72206e6f60008201527f6e6578697374656e7420746f6b656e0000000000000000000000000000000000602082015250565b60006132c0602f83612331565b91506132cb82613264565b604082019050919050565b600060208201905081810360008301526132ef816132b3565b9050919050565b7f4552433732313a206f70657261746f7220717565727920666f72206e6f6e657860008201527f697374656e7420746f6b656e0000000000000000000000000000000000000000602082015250565b6000613352602c83612331565b915061335d826132f6565b604082019050919050565b6000602082019050818103600083015261338181613345565b9050919050565b7f4552433732313a207472616e736665722066726f6d20696e636f72726563742060008201527f6f776e6572000000000000000000000000000000000000000000000000000000602082015250565b60006133e4602583612331565b91506133ef82613388565b604082019050919050565b60006020820190508181036000830152613413816133d7565b9050919050565b7f4552433732313a207472616e7366657220746f20746865207a65726f2061646460008201527f7265737300000000000000000000000000000000000000000000000000000000602082015250565b6000613476602483612331565b91506134818261341a565b604082019050919050565b600060208201905081810360008301526134a581613469565b9050919050565b60006134b7826123e1565b91506134c2836123e1565b9250827fffffffffffffffffffffffffffffffffffffffffffffffffffffffffffffffff038211156134f7576134f6612f19565b5b828201905092915050565b7f4552433732313a20617070726f766520746f2063616c6c657200000000000000600082015250565b6000613538601983612331565b915061354382613502565b602082019050919050565b600060208201905081810360008301526135678161352b565b9050919050565b7f4552433732313a207472616e7366657220746f206e6f6e20455243373231526560008201527f63656976657220696d706c656d656e7465720000000000000000000000000000602082015250565b60006135ca603283612331565b91506135d58261356e565b604082019050919050565b600060208201905081810360008301526135f9816135bd565b9050919050565b600081519050919050565b600082825260208201905092915050565b600061362782613600565b613631818561360b565b9350613641818560208601612342565b61364a81612375565b840191505092915050565b600060808201905061366a6000830187612476565b6136776020830186612476565b613684604083018561269d565b8181036060830152613696818461361c565b905095945050505050565b6000815190506136b081612297565b92915050565b6000602082840312156136cc576136cb612261565b5b60006136da848285016136a1565b91505092915050565b7f4e487b7100000000000000000000000000000000000000000000000000000000600052603160045260246000fd5b7f4552433732313a206d696e7420746f20746865207a65726f2061646472657373600082015250565b6000613748602083612331565b915061375382613712565b602082019050919050565b600060208201905081810360008301526137778161373b565b9050919050565b7f4552433732313a20746f6b656e20616c7265616479206d696e74656400000000600082015250565b60006137b4601c83612331565b91506137bf8261377e565b602082019050919050565b600060208201905081810360008301526137e3816137a7565b905091905056fea264697066735822122080ef6c2d8e5bed9e18aefedc0bca319048654995036cca7d0e5b6f519683dd3c64736f6c634300080d0033",
  "immutableReferences": {},
  "source": "// SPDX-License-Identifier: GPL-3.0\r\npragma solidity >=0.7.0 <0.9.0;\r\n\r\nimport \"@openzeppelin/contracts/token/ERC721/extensions/ERC721Enumerable.sol\";\r\nimport \"@openzeppelin/contracts/utils/Strings.sol\";\r\n\r\ninterface IUserCollection {\r\n    function createCollection(\r\n        address _Nft,\r\n        address _creator,\r\n        string memory collectionURI,\r\n        string memory _name,\r\n        string memory _symbol\r\n    ) external;\r\n}\r\n\r\ncontract BlankNFT_ERC721 is ERC721Enumerable {\r\n    using Strings for uint256;\r\n    uint256 public id;\r\n    mapping(uint256 => string) private tokenURIs;\r\n    address private creator;\r\n    string private baseExtension = \".json\";\r\n\r\n    constructor(\r\n        string memory _collectionURI,\r\n        string memory _name,\r\n        string memory _symbol,\r\n        address _userNFTsBox\r\n    ) ERC721(_name, _symbol) {\r\n        id = 1;\r\n        creator = msg.sender;\r\n        IUserCollection(_userNFTsBox).createCollection(\r\n            address(this),\r\n            creator,\r\n            _collectionURI,\r\n            _name,\r\n            _symbol\r\n        );\r\n    }\r\n\r\n    function getCreator() external view returns (address) {\r\n        return creator;\r\n    }\r\n\r\n    function mint(string memory _uri) public {\r\n        _safeMint(msg.sender, id);\r\n        setTokenURI(id, _uri);\r\n        id++;\r\n    }\r\n\r\n    function setTokenURI(uint256 _id, string memory _uri) public {\r\n        require(_exists(_id), \"ERC721URIStorage: URI set of nonexistent token\");\r\n        require(ownerOf(_id) == msg.sender, \"You are not an owner\");\r\n        require(\r\n            bytes(tokenURIs[_id]).length == 0,\r\n            \"You have already set up the token URI\"\r\n        );\r\n        tokenURIs[_id] = _uri;\r\n    }\r\n\r\n    function _baseURI() internal view virtual override returns (string memory) {\r\n        return \"Created From NFTs\";\r\n    }\r\n\r\n    function tokenURI(uint256 tokenId)\r\n        public\r\n        view\r\n        virtual\r\n        override\r\n        returns (string memory)\r\n    {\r\n        require(\r\n            _exists(tokenId),\r\n            \"ERC721Metadata: URI query for nonexistent token\"\r\n        );\r\n\r\n        return bytes(tokenURIs[tokenId]).length > 0 ? tokenURIs[tokenId] : \"\";\r\n    }\r\n\r\n    function getURIs(address _user) external view returns (string[] memory) {\r\n        uint256 totalNFTs = balanceOf(_user);\r\n        string[] memory userNFTsURIs = new string[](totalNFTs);\r\n\r\n        for (uint256 i = 0; i < userNFTsURIs.length; i++) {\r\n            userNFTsURIs[i] = tokenURI(tokenOfOwnerByIndex(msg.sender, i));\r\n        }\r\n        return userNFTsURIs;\r\n    }\r\n\r\n    // function OwnersNftsURIs(address _owner, uint _limit, uint _offset) public view returns(string[] memory) {\r\n    //         if(balanceOf(_owner)==0){\r\n    //             return new string[](0);\r\n    //         }\r\n    //         uint untillThisIndex = _limit+_offset > balanceOf(_owner) ? balanceOf(_owner) : _limit+_offset;\r\n\r\n    //         uint size = _limit+_offset > balanceOf(_owner) ?  balanceOf(_owner) - _offset : _limit;\r\n    //         string[] memory ownedNFTsURIsList = new string[](size);\r\n    //         uint ownedNFTId;\r\n\r\n    //         uint index = 0;\r\n    //         while(_offset<untillThisIndex){\r\n    //             ownedNFTId=(tokenOfOwnerByIndex(_owner,_offset));\r\n    //             ownedNFTsURIsList[index] =  tokenURIs[ownedNFTId];\r\n    //             ++_offset;\r\n    //             ++index;\r\n    //         }\r\n    //         return ownedNFTsURIsList;\r\n    // }\r\n    function getOwnersNftsURIs(\r\n        address _owner,\r\n        uint256 _limit,\r\n        uint256 _offset\r\n    ) public view returns (string[] memory) {\r\n        if (balanceOf(_owner) == 0) {\r\n            return new string[](0);\r\n        }\r\n        uint256 size = _offset > _limit ? _limit : _offset;\r\n        string[] memory ownedNFTsURIsList = new string[](size);\r\n        uint256 ownedNFTId;\r\n\r\n        for (uint256 i = 0; i < size; i++) {\r\n            ownedNFTId = (tokenOfOwnerByIndex(_owner, _offset - 1));\r\n            ownedNFTsURIsList[i] = tokenURIs[ownedNFTId];\r\n            --_offset;\r\n        }\r\n\r\n        return ownedNFTsURIsList;\r\n    }\r\n\r\n    function getLatestURI() public view returns (string memory) {\r\n        return tokenURIs[id];\r\n    }\r\n}\r\n",
  "sourcePath": "H:\\Portfolio\\truffle\\contracts\\NFTsGenerator\\BlankNFT_ERC721.sol",
  "compiler": {
    "name": "solc",
    "version": "0.8.13+commit.abaa5c0e.Emscripten.clang"
  },
  "schemaVersion": "3.4.7",
  "updatedAt": "2022-07-02T16:27:26.848Z",
  "networkType": "ethereum",
  "devdoc": {
    "kind": "dev",
    "methods": {
      "approve(address,uint256)": {
        "details": "See {IERC721-approve}."
      },
      "balanceOf(address)": {
        "details": "See {IERC721-balanceOf}."
      },
      "getApproved(uint256)": {
        "details": "See {IERC721-getApproved}."
      },
      "isApprovedForAll(address,address)": {
        "details": "See {IERC721-isApprovedForAll}."
      },
      "name()": {
        "details": "See {IERC721Metadata-name}."
      },
      "ownerOf(uint256)": {
        "details": "See {IERC721-ownerOf}."
      },
      "safeTransferFrom(address,address,uint256)": {
        "details": "See {IERC721-safeTransferFrom}."
      },
      "safeTransferFrom(address,address,uint256,bytes)": {
        "details": "See {IERC721-safeTransferFrom}."
      },
      "setApprovalForAll(address,bool)": {
        "details": "See {IERC721-setApprovalForAll}."
      },
      "supportsInterface(bytes4)": {
        "details": "See {IERC165-supportsInterface}."
      },
      "symbol()": {
        "details": "See {IERC721Metadata-symbol}."
      },
      "tokenByIndex(uint256)": {
        "details": "See {IERC721Enumerable-tokenByIndex}."
      },
      "tokenOfOwnerByIndex(address,uint256)": {
        "details": "See {IERC721Enumerable-tokenOfOwnerByIndex}."
      },
      "tokenURI(uint256)": {
        "details": "See {IERC721Metadata-tokenURI}."
      },
      "totalSupply()": {
        "details": "See {IERC721Enumerable-totalSupply}."
      },
      "transferFrom(address,address,uint256)": {
        "details": "See {IERC721-transferFrom}."
      }
    },
    "version": 1
  },
  "userdoc": {
    "kind": "user",
    "methods": {},
    "version": 1
  }
}