{
  "contractName": "Eevee",
  "abi": [
    {
      "inputs": [
        {
          "internalType": "string",
          "name": "_baseURI",
          "type": "string"
        },
        {
          "internalType": "address payable",
          "name": "_wallet",
          "type": "address"
        },
        {
          "internalType": "string",
          "name": "_key1",
          "type": "string"
        },
        {
          "internalType": "uint256",
          "name": "_key2",
          "type": "uint256"
        }
      ],
      "stateMutability": "nonpayable",
      "type": "constructor"
    },
    {
      "anonymous": false,
      "inputs": [
        {
          "indexed": true,
          "internalType": "address",
          "name": "account",
          "type": "address"
        },
        {
          "indexed": true,
          "internalType": "address",
          "name": "operator",
          "type": "address"
        },
        {
          "indexed": false,
          "internalType": "bool",
          "name": "approved",
          "type": "bool"
        }
      ],
      "name": "ApprovalForAll",
      "type": "event"
    },
    {
      "anonymous": false,
      "inputs": [
        {
          "indexed": true,
          "internalType": "address",
          "name": "previousOwner",
          "type": "address"
        },
        {
          "indexed": true,
          "internalType": "address",
          "name": "newOwner",
          "type": "address"
        }
      ],
      "name": "OwnershipTransferred",
      "type": "event"
    },
    {
      "anonymous": false,
      "inputs": [
        {
          "indexed": true,
          "internalType": "address",
          "name": "operator",
          "type": "address"
        },
        {
          "indexed": true,
          "internalType": "address",
          "name": "from",
          "type": "address"
        },
        {
          "indexed": true,
          "internalType": "address",
          "name": "to",
          "type": "address"
        },
        {
          "indexed": false,
          "internalType": "uint256[]",
          "name": "ids",
          "type": "uint256[]"
        },
        {
          "indexed": false,
          "internalType": "uint256[]",
          "name": "values",
          "type": "uint256[]"
        }
      ],
      "name": "TransferBatch",
      "type": "event"
    },
    {
      "anonymous": false,
      "inputs": [
        {
          "indexed": true,
          "internalType": "address",
          "name": "operator",
          "type": "address"
        },
        {
          "indexed": true,
          "internalType": "address",
          "name": "from",
          "type": "address"
        },
        {
          "indexed": true,
          "internalType": "address",
          "name": "to",
          "type": "address"
        },
        {
          "indexed": false,
          "internalType": "uint256",
          "name": "id",
          "type": "uint256"
        },
        {
          "indexed": false,
          "internalType": "uint256",
          "name": "value",
          "type": "uint256"
        }
      ],
      "name": "TransferSingle",
      "type": "event"
    },
    {
      "anonymous": false,
      "inputs": [
        {
          "indexed": false,
          "internalType": "string",
          "name": "value",
          "type": "string"
        },
        {
          "indexed": true,
          "internalType": "uint256",
          "name": "id",
          "type": "uint256"
        }
      ],
      "name": "URI",
      "type": "event"
    },
    {
      "inputs": [],
      "name": "DARKSTONE",
      "outputs": [
        {
          "internalType": "uint256",
          "name": "",
          "type": "uint256"
        }
      ],
      "stateMutability": "view",
      "type": "function",
      "constant": true
    },
    {
      "inputs": [],
      "name": "EEVEE",
      "outputs": [
        {
          "internalType": "uint256",
          "name": "",
          "type": "uint256"
        }
      ],
      "stateMutability": "view",
      "type": "function",
      "constant": true
    },
    {
      "inputs": [],
      "name": "FIRESTONE",
      "outputs": [
        {
          "internalType": "uint256",
          "name": "",
          "type": "uint256"
        }
      ],
      "stateMutability": "view",
      "type": "function",
      "constant": true
    },
    {
      "inputs": [],
      "name": "FLAREON",
      "outputs": [
        {
          "internalType": "uint256",
          "name": "",
          "type": "uint256"
        }
      ],
      "stateMutability": "view",
      "type": "function",
      "constant": true
    },
    {
      "inputs": [],
      "name": "LEAFEON",
      "outputs": [
        {
          "internalType": "uint256",
          "name": "",
          "type": "uint256"
        }
      ],
      "stateMutability": "view",
      "type": "function",
      "constant": true
    },
    {
      "inputs": [],
      "name": "LEAFSTONE",
      "outputs": [
        {
          "internalType": "uint256",
          "name": "",
          "type": "uint256"
        }
      ],
      "stateMutability": "view",
      "type": "function",
      "constant": true
    },
    {
      "inputs": [],
      "name": "POKEMONBALL",
      "outputs": [
        {
          "internalType": "uint256",
          "name": "",
          "type": "uint256"
        }
      ],
      "stateMutability": "view",
      "type": "function",
      "constant": true
    },
    {
      "inputs": [],
      "name": "SYLVEON",
      "outputs": [
        {
          "internalType": "uint256",
          "name": "",
          "type": "uint256"
        }
      ],
      "stateMutability": "view",
      "type": "function",
      "constant": true
    },
    {
      "inputs": [],
      "name": "UMBREON",
      "outputs": [
        {
          "internalType": "uint256",
          "name": "",
          "type": "uint256"
        }
      ],
      "stateMutability": "view",
      "type": "function",
      "constant": true
    },
    {
      "inputs": [],
      "name": "VAPOREAN",
      "outputs": [
        {
          "internalType": "uint256",
          "name": "",
          "type": "uint256"
        }
      ],
      "stateMutability": "view",
      "type": "function",
      "constant": true
    },
    {
      "inputs": [],
      "name": "WATERSTONE",
      "outputs": [
        {
          "internalType": "uint256",
          "name": "",
          "type": "uint256"
        }
      ],
      "stateMutability": "view",
      "type": "function",
      "constant": true
    },
    {
      "inputs": [
        {
          "internalType": "address",
          "name": "account",
          "type": "address"
        },
        {
          "internalType": "uint256",
          "name": "id",
          "type": "uint256"
        }
      ],
      "name": "balanceOf",
      "outputs": [
        {
          "internalType": "uint256",
          "name": "",
          "type": "uint256"
        }
      ],
      "stateMutability": "view",
      "type": "function",
      "constant": true
    },
    {
      "inputs": [
        {
          "internalType": "address[]",
          "name": "accounts",
          "type": "address[]"
        },
        {
          "internalType": "uint256[]",
          "name": "ids",
          "type": "uint256[]"
        }
      ],
      "name": "balanceOfBatch",
      "outputs": [
        {
          "internalType": "uint256[]",
          "name": "",
          "type": "uint256[]"
        }
      ],
      "stateMutability": "view",
      "type": "function",
      "constant": true
    },
    {
      "inputs": [],
      "name": "finalNftNum",
      "outputs": [
        {
          "internalType": "uint256",
          "name": "",
          "type": "uint256"
        }
      ],
      "stateMutability": "view",
      "type": "function",
      "constant": true
    },
    {
      "inputs": [
        {
          "internalType": "address",
          "name": "account",
          "type": "address"
        },
        {
          "internalType": "address",
          "name": "operator",
          "type": "address"
        }
      ],
      "name": "isApprovedForAll",
      "outputs": [
        {
          "internalType": "bool",
          "name": "",
          "type": "bool"
        }
      ],
      "stateMutability": "view",
      "type": "function",
      "constant": true
    },
    {
      "inputs": [],
      "name": "owner",
      "outputs": [
        {
          "internalType": "address",
          "name": "",
          "type": "address"
        }
      ],
      "stateMutability": "view",
      "type": "function",
      "constant": true
    },
    {
      "inputs": [],
      "name": "pokemonBallLimit",
      "outputs": [
        {
          "internalType": "uint256",
          "name": "",
          "type": "uint256"
        }
      ],
      "stateMutability": "view",
      "type": "function",
      "constant": true
    },
    {
      "inputs": [],
      "name": "renounceOwnership",
      "outputs": [],
      "stateMutability": "nonpayable",
      "type": "function"
    },
    {
      "inputs": [
        {
          "internalType": "address",
          "name": "from",
          "type": "address"
        },
        {
          "internalType": "address",
          "name": "to",
          "type": "address"
        },
        {
          "internalType": "uint256[]",
          "name": "ids",
          "type": "uint256[]"
        },
        {
          "internalType": "uint256[]",
          "name": "amounts",
          "type": "uint256[]"
        },
        {
          "internalType": "bytes",
          "name": "data",
          "type": "bytes"
        }
      ],
      "name": "safeBatchTransferFrom",
      "outputs": [],
      "stateMutability": "nonpayable",
      "type": "function"
    },
    {
      "inputs": [
        {
          "internalType": "address",
          "name": "from",
          "type": "address"
        },
        {
          "internalType": "address",
          "name": "to",
          "type": "address"
        },
        {
          "internalType": "uint256",
          "name": "id",
          "type": "uint256"
        },
        {
          "internalType": "uint256",
          "name": "amount",
          "type": "uint256"
        },
        {
          "internalType": "bytes",
          "name": "data",
          "type": "bytes"
        }
      ],
      "name": "safeTransferFrom",
      "outputs": [],
      "stateMutability": "nonpayable",
      "type": "function"
    },
    {
      "inputs": [
        {
          "internalType": "address",
          "name": "operator",
          "type": "address"
        },
        {
          "internalType": "bool",
          "name": "approved",
          "type": "bool"
        }
      ],
      "name": "setApprovalForAll",
      "outputs": [],
      "stateMutability": "nonpayable",
      "type": "function"
    },
    {
      "inputs": [
        {
          "internalType": "bytes4",
          "name": "interfaceId",
          "type": "bytes4"
        }
      ],
      "name": "supportsInterface",
      "outputs": [
        {
          "internalType": "bool",
          "name": "",
          "type": "bool"
        }
      ],
      "stateMutability": "view",
      "type": "function",
      "constant": true
    },
    {
      "inputs": [
        {
          "internalType": "address",
          "name": "newOwner",
          "type": "address"
        }
      ],
      "name": "transferOwnership",
      "outputs": [],
      "stateMutability": "nonpayable",
      "type": "function"
    },
    {
      "inputs": [],
      "name": "wallet",
      "outputs": [
        {
          "internalType": "address payable",
          "name": "",
          "type": "address"
        }
      ],
      "stateMutability": "view",
      "type": "function",
      "constant": true
    },
    {
      "stateMutability": "payable",
      "type": "receive",
      "payable": true
    },
    {
      "inputs": [],
      "name": "mintPokemonBall",
      "outputs": [],
      "stateMutability": "payable",
      "type": "function",
      "payable": true
    },
    {
      "inputs": [],
      "name": "openPokemonBall",
      "outputs": [],
      "stateMutability": "payable",
      "type": "function",
      "payable": true
    },
    {
      "inputs": [
        {
          "internalType": "uint256",
          "name": "_id",
          "type": "uint256"
        }
      ],
      "name": "evolveEevee",
      "outputs": [],
      "stateMutability": "payable",
      "type": "function",
      "payable": true
    },
    {
      "inputs": [],
      "name": "finalEvoluation",
      "outputs": [],
      "stateMutability": "payable",
      "type": "function",
      "payable": true
    },
    {
      "inputs": [
        {
          "internalType": "string",
          "name": "_key1",
          "type": "string"
        },
        {
          "internalType": "uint256",
          "name": "_key2",
          "type": "uint256"
        }
      ],
      "name": "changeSecrets",
      "outputs": [],
      "stateMutability": "nonpayable",
      "type": "function"
    },
    {
      "inputs": [
        {
          "internalType": "uint256",
          "name": "_tokenId",
          "type": "uint256"
        }
      ],
      "name": "uri",
      "outputs": [
        {
          "internalType": "string",
          "name": "",
          "type": "string"
        }
      ],
      "stateMutability": "view",
      "type": "function",
      "constant": true
    },
    {
      "inputs": [
        {
          "internalType": "address payable",
          "name": "_wallet",
          "type": "address"
        }
      ],
      "name": "setWallet",
      "outputs": [],
      "stateMutability": "nonpayable",
      "type": "function"
    },
    {
      "inputs": [
        {
          "internalType": "address",
          "name": "_receiver",
          "type": "address"
        }
      ],
      "name": "test_getAll",
      "outputs": [],
      "stateMutability": "nonpayable",
      "type": "function"
    }
  ],
  "bytecode": "0x60806040526103e86005556040518060400160405280600581526020017f2e6a736f6e000000000000000000000000000000000000000000000000000000815250600a908051906020019062000057929190620003aa565b5060405180608001604052806006815260200160078152602001600881526020016009815250600b9060046200008f9291906200043b565b506040518060800160405280600160ff168152602001600160ff168152602001600160ff168152602001600160ff16815250600c906004620000d39291906200048d565b5060405180610160016040528060008152602001600181526020016002815260200160038152602001600481526020016005815260200160068152602001600781526020016008815260200160098152602001600a815250600e90600b6200013d929190620004e4565b50604051806101600160405280600160ff168152602001600160ff168152602001600160ff168152602001600160ff168152602001600160ff168152602001600160ff168152602001600160ff168152602001600160ff168152602001600160ff168152602001600160ff168152602001600160ff16815250600f90600b620001c892919062000536565b50348015620001d657600080fd5b506040516200553c3803806200553c8339818101604052810190620001fc9190620007e9565b604051806020016040528060008152506200022c62000220620002c260201b60201c565b620002ca60201b60201c565b6200023d816200038e60201b60201c565b5082600460006101000a81548173ffffffffffffffffffffffffffffffffffffffff021916908373ffffffffffffffffffffffffffffffffffffffff160217905550836009908051906020019062000297929190620003aa565b508160079080519060200190620002b0929190620003aa565b508060088190555050505050620008fd565b600033905090565b60008060009054906101000a900473ffffffffffffffffffffffffffffffffffffffff169050816000806101000a81548173ffffffffffffffffffffffffffffffffffffffff021916908373ffffffffffffffffffffffffffffffffffffffff1602179055508173ffffffffffffffffffffffffffffffffffffffff168173ffffffffffffffffffffffffffffffffffffffff167f8be0079c531659141344cd1fd0a4f28419497f9722a3daafe3b4186f6b6457e060405160405180910390a35050565b8060039080519060200190620003a6929190620003aa565b5050565b828054620003b890620008c8565b90600052602060002090601f016020900481019282620003dc576000855562000428565b82601f10620003f757805160ff191683800117855562000428565b8280016001018555821562000428579182015b82811115620004275782518255916020019190600101906200040a565b5b5090506200043791906200058d565b5090565b8280548282559060005260206000209081019282156200047a579160200282015b82811115620004795782518255916020019190600101906200045c565b5b5090506200048991906200058d565b5090565b828054828255906000526020600020908101928215620004d1579160200282015b82811115620004d0578251829060ff16905591602001919060010190620004ae565b5b509050620004e091906200058d565b5090565b82805482825590600052602060002090810192821562000523579160200282015b828111156200052257825182559160200191906001019062000505565b5b5090506200053291906200058d565b5090565b8280548282559060005260206000209081019282156200057a579160200282015b8281111562000579578251829060ff1690559160200191906001019062000557565b5b5090506200058991906200058d565b5090565b5b80821115620005a85760008160009055506001016200058e565b5090565b6000604051905090565b600080fd5b600080fd5b600080fd5b600080fd5b6000601f19601f8301169050919050565b7f4e487b7100000000000000000000000000000000000000000000000000000000600052604160045260246000fd5b6200061582620005ca565b810181811067ffffffffffffffff82111715620006375762000636620005db565b5b80604052505050565b60006200064c620005ac565b90506200065a82826200060a565b919050565b600067ffffffffffffffff8211156200067d576200067c620005db565b5b6200068882620005ca565b9050602081019050919050565b60005b83811015620006b557808201518184015260208101905062000698565b83811115620006c5576000848401525b50505050565b6000620006e2620006dc846200065f565b62000640565b905082815260208101848484011115620007015762000700620005c5565b5b6200070e84828562000695565b509392505050565b600082601f8301126200072e576200072d620005c0565b5b815162000740848260208601620006cb565b91505092915050565b600073ffffffffffffffffffffffffffffffffffffffff82169050919050565b6000620007768262000749565b9050919050565b620007888162000769565b81146200079457600080fd5b50565b600081519050620007a8816200077d565b92915050565b6000819050919050565b620007c381620007ae565b8114620007cf57600080fd5b50565b600081519050620007e381620007b8565b92915050565b60008060008060808587031215620008065762000805620005b6565b5b600085015167ffffffffffffffff811115620008275762000826620005bb565b5b620008358782880162000716565b9450506020620008488782880162000797565b935050604085015167ffffffffffffffff8111156200086c576200086b620005bb565b5b6200087a8782880162000716565b92505060606200088d87828801620007d2565b91505092959194509250565b7f4e487b7100000000000000000000000000000000000000000000000000000000600052602260045260246000fd5b60006002820490506001821680620008e157607f821691505b602082108103620008f757620008f662000899565b5b50919050565b614c2f806200090d6000396000f3fe6080604052600436106101e65760003560e01c8063896c082811610102578063d1cd64c211610095578063e985e9c511610064578063e985e9c51461069f578063eb1fb56f146106dc578063f242432a14610707578063f2fde38b146107305761022e565b8063d1cd64c2146105f5578063d648fa9c14610620578063deaa59df1461064b578063e192b208146106745761022e565b8063aa3849a5116100d1578063aa3849a514610558578063b00fd07214610583578063b8a9a3e9146105ae578063cd2acc98146105ca5761022e565b8063896c0828146104cf5780638adcaf5d146104fa5780638da5cb5b14610504578063a22cb4651461052f5761022e565b806345d9a8011161017a5780636af8901e116101495780636af8901e14610458578063715018a6146104835780637e55e9941461049a578063861a9d21146104a45761022e565b806345d9a8011461039c578063490b398a146103c55780634e1273f4146103f0578063521eb2731461042d5761022e565b80632eb2c2d6116101b65780632eb2c2d6146103135780633b54d2411461033c578063422b22cf146103675780634546b8ba146103925761022e565b8062fdd58e1461023357806301ffc9a71461027057806307e3098b146102ad5780630e89341c146102d65761022e565b3661022e57600161022c576040517f08c379a000000000000000000000000000000000000000000000000000000000815260040161022390613008565b60405180910390fd5b005b600080fd5b34801561023f57600080fd5b5061025a600480360381019061025591906130d0565b610759565b604051610267919061311f565b60405180910390f35b34801561027c57600080fd5b5061029760048036038101906102929190613192565b610822565b6040516102a491906131da565b60405180910390f35b3480156102b957600080fd5b506102d460048036038101906102cf91906131f5565b610904565b005b3480156102e257600080fd5b506102fd60048036038101906102f89190613222565b610a53565b60405161030a91906132d7565b60405180910390f35b34801561031f57600080fd5b5061033a600480360381019061033591906134f6565b610ab6565b005b34801561034857600080fd5b50610351610b57565b60405161035e919061311f565b60405180910390f35b34801561037357600080fd5b5061037c610b5c565b604051610389919061311f565b60405180910390f35b61039a610b61565b005b3480156103a857600080fd5b506103c360048036038101906103be9190613666565b610dba565b005b3480156103d157600080fd5b506103da610e58565b6040516103e7919061311f565b60405180910390f35b3480156103fc57600080fd5b5061041760048036038101906104129190613785565b610e5d565b60405161042491906138bb565b60405180910390f35b34801561043957600080fd5b50610442610f76565b60405161044f91906138fe565b60405180910390f35b34801561046457600080fd5b5061046d610f9c565b60405161047a919061311f565b60405180910390f35b34801561048f57600080fd5b50610498610fa1565b005b6104a2611029565b005b3480156104b057600080fd5b506104b9611176565b6040516104c6919061311f565b60405180910390f35b3480156104db57600080fd5b506104e461117b565b6040516104f1919061311f565b60405180910390f35b610502611180565b005b34801561051057600080fd5b506105196112e7565b6040516105269190613928565b60405180910390f35b34801561053b57600080fd5b506105566004803603810190610551919061396f565b611310565b005b34801561056457600080fd5b5061056d611326565b60405161057a919061311f565b60405180910390f35b34801561058f57600080fd5b5061059861132c565b6040516105a5919061311f565b60405180910390f35b6105c860048036038101906105c39190613222565b611331565b005b3480156105d657600080fd5b506105df6114b1565b6040516105ec919061311f565b60405180910390f35b34801561060157600080fd5b5061060a6114b6565b604051610617919061311f565b60405180910390f35b34801561062c57600080fd5b506106356114bc565b604051610642919061311f565b60405180910390f35b34801561065757600080fd5b50610672600480360381019061066d91906139db565b6114c1565b005b34801561068057600080fd5b50610689611581565b604051610696919061311f565b60405180910390f35b3480156106ab57600080fd5b506106c660048036038101906106c19190613a08565b611586565b6040516106d391906131da565b60405180910390f35b3480156106e857600080fd5b506106f161161a565b6040516106fe919061311f565b60405180910390f35b34801561071357600080fd5b5061072e60048036038101906107299190613a48565b61161f565b005b34801561073c57600080fd5b50610757600480360381019061075291906131f5565b6116c0565b005b60008073ffffffffffffffffffffffffffffffffffffffff168373ffffffffffffffffffffffffffffffffffffffff16036107c9576040517f08c379a00000000000000000000000000000000000000000000000000000000081526004016107c090613b51565b60405180910390fd5b6001600083815260200190815260200160002060008473ffffffffffffffffffffffffffffffffffffffff1673ffffffffffffffffffffffffffffffffffffffff16815260200190815260200160002054905092915050565b60007fd9b67a26000000000000000000000000000000000000000000000000000000007bffffffffffffffffffffffffffffffffffffffffffffffffffffffff1916827bffffffffffffffffffffffffffffffffffffffffffffffffffffffff191614806108ed57507f0e89341c000000000000000000000000000000000000000000000000000000007bffffffffffffffffffffffffffffffffffffffffffffffffffffffff1916827bffffffffffffffffffffffffffffffffffffffffffffffffffffffff1916145b806108fd57506108fc826117b7565b5b9050919050565b61090c611821565b73ffffffffffffffffffffffffffffffffffffffff1661092a6112e7565b73ffffffffffffffffffffffffffffffffffffffff1614610980576040517f08c379a000000000000000000000000000000000000000000000000000000000815260040161097790613bbd565b60405180910390fd5b6001600d5461098f9190613c0c565b600d81905550610a5081600e8054806020026020016040519081016040528092919081815260200182805480156109e557602002820191906000526020600020905b8154815260200190600101908083116109d1575b5050505050600f805480602002602001604051908101604052809291908181526020018280548015610a3657602002820191906000526020600020905b815481526020019060010190808311610a22575b505050505060405180602001604052806000815250611829565b50565b6060600060098054610a6490613c91565b905011610a805760405180602001604052806000815250610aaf565b6009610a8b83611a47565b600a604051602001610a9f93929190613d92565b6040516020818303038152906040525b9050919050565b610abe611821565b73ffffffffffffffffffffffffffffffffffffffff168573ffffffffffffffffffffffffffffffffffffffff161480610b045750610b0385610afe611821565b611586565b5b610b43576040517f08c379a0000000000000000000000000000000000000000000000000000000008152600401610b3a90613e35565b60405180910390fd5b610b508585858585611ba7565b5050505050565b600481565b600581565b6004600d5410610ba6576040517f08c379a0000000000000000000000000000000000000000000000000000000008152600401610b9d90613ea1565b60405180910390fd5b600073ffffffffffffffffffffffffffffffffffffffff16610bc6611821565b73ffffffffffffffffffffffffffffffffffffffff1603610c1c576040517f08c379a0000000000000000000000000000000000000000000000000000000008152600401610c1390613f0d565b60405180910390fd5b34655af3107a400014610c64576040517f08c379a0000000000000000000000000000000000000000000000000000000008152600401610c5b90613f79565b60405180910390fd5b6001600d54610c739190613c0c565b600d81905550610d2b610c84611821565b600b805480602002602001604051908101604052809291908181526020018280548015610cd057602002820191906000526020600020905b815481526020019060010190808311610cbc575b5050505050600c805480602002602001604051908101604052809291908181526020018280548015610d2157602002820191906000526020600020905b815481526020019060010190808311610d0d575b5050505050611ebd565b610d4f610d36611821565b600a60016040518060200160405280600081525061216f565b600460009054906101000a900473ffffffffffffffffffffffffffffffffffffffff1673ffffffffffffffffffffffffffffffffffffffff166108fc349081150290604051600060405180830381858888f19350505050158015610db7573d6000803e3d6000fd5b50565b610dc2611821565b73ffffffffffffffffffffffffffffffffffffffff16610de06112e7565b73ffffffffffffffffffffffffffffffffffffffff1614610e36576040517f08c379a0000000000000000000000000000000000000000000000000000000008152600401610e2d90613bbd565b60405180910390fd5b8160079080519060200190610e4c929190612f08565b50806008819055505050565b600a81565b60608151835114610ea3576040517f08c379a0000000000000000000000000000000000000000000000000000000008152600401610e9a9061400b565b60405180910390fd5b6000835167ffffffffffffffff811115610ec057610ebf6132fe565b5b604051908082528060200260200182016040528015610eee5781602001602082028036833780820191505090505b50905060005b8451811015610f6b57610f3b858281518110610f1357610f1261402b565b5b6020026020010151858381518110610f2e57610f2d61402b565b5b6020026020010151610759565b828281518110610f4e57610f4d61402b565b5b60200260200101818152505080610f649061405a565b9050610ef4565b508091505092915050565b600460009054906101000a900473ffffffffffffffffffffffffffffffffffffffff1681565b600781565b610fa9611821565b73ffffffffffffffffffffffffffffffffffffffff16610fc76112e7565b73ffffffffffffffffffffffffffffffffffffffff161461101d576040517f08c379a000000000000000000000000000000000000000000000000000000000815260040161101490613bbd565b60405180910390fd5b6110276000612305565b565b600073ffffffffffffffffffffffffffffffffffffffff16611049611821565b73ffffffffffffffffffffffffffffffffffffffff160361109f576040517f08c379a0000000000000000000000000000000000000000000000000000000008152600401611096906140ee565b60405180910390fd5b34655af3107a4000146110e7576040517f08c379a00000000000000000000000000000000000000000000000000000000081526004016110de9061415a565b60405180910390fd5b61110b6110f2611821565b600060016040518060200160405280600081525061216f565b600460009054906101000a900473ffffffffffffffffffffffffffffffffffffffff1673ffffffffffffffffffffffffffffffffffffffff166108fc349081150290604051600060405180830381858888f19350505050158015611173573d6000803e3d6000fd5b50565b600881565b600081565b600073ffffffffffffffffffffffffffffffffffffffff166111a0611821565b73ffffffffffffffffffffffffffffffffffffffff16036111f6576040517f08c379a00000000000000000000000000000000000000000000000000000000081526004016111ed90613f0d565b60405180910390fd5b34655af3107a40001461123e576040517f08c379a00000000000000000000000000000000000000000000000000000000081526004016112359061415a565b60405180910390fd5b611252611249611821565b600060016123c9565b61127c61125d611821565b6112656125e7565b60016040518060200160405280600081525061216f565b600460009054906101000a900473ffffffffffffffffffffffffffffffffffffffff1673ffffffffffffffffffffffffffffffffffffffff166108fc349081150290604051600060405180830381858888f193505050501580156112e4573d6000803e3d6000fd5b50565b60008060009054906101000a900473ffffffffffffffffffffffffffffffffffffffff16905090565b61132261131b611821565b83836126c5565b5050565b60055481565b600681565b600073ffffffffffffffffffffffffffffffffffffffff16611351611821565b73ffffffffffffffffffffffffffffffffffffffff16036113a7576040517f08c379a000000000000000000000000000000000000000000000000000000000815260040161139e90613f0d565b60405180910390fd5b34655af3107a4000146113ef576040517f08c379a00000000000000000000000000000000000000000000000000000000081526004016113e690613f79565b60405180910390fd5b6114036113fa611821565b600560016123c9565b61141661140e611821565b8260016123c9565b611445611421611821565b82600561142e9190613c0c565b60016040518060200160405280600081525061216f565b600460009054906101000a900473ffffffffffffffffffffffffffffffffffffffff1673ffffffffffffffffffffffffffffffffffffffff166108fc349081150290604051600060405180830381858888f193505050501580156114ad573d6000803e3d6000fd5b5050565b600281565b600d5481565b600181565b6114c9611821565b73ffffffffffffffffffffffffffffffffffffffff166114e76112e7565b73ffffffffffffffffffffffffffffffffffffffff161461153d576040517f08c379a000000000000000000000000000000000000000000000000000000000815260040161153490613bbd565b60405180910390fd5b80600460006101000a81548173ffffffffffffffffffffffffffffffffffffffff021916908373ffffffffffffffffffffffffffffffffffffffff16021790555050565b600381565b6000600260008473ffffffffffffffffffffffffffffffffffffffff1673ffffffffffffffffffffffffffffffffffffffff16815260200190815260200160002060008373ffffffffffffffffffffffffffffffffffffffff1673ffffffffffffffffffffffffffffffffffffffff16815260200190815260200160002060009054906101000a900460ff16905092915050565b600981565b611627611821565b73ffffffffffffffffffffffffffffffffffffffff168573ffffffffffffffffffffffffffffffffffffffff16148061166d575061166c85611667611821565b611586565b5b6116ac576040517f08c379a00000000000000000000000000000000000000000000000000000000081526004016116a3906141ec565b60405180910390fd5b6116b98585858585612831565b5050505050565b6116c8611821565b73ffffffffffffffffffffffffffffffffffffffff166116e66112e7565b73ffffffffffffffffffffffffffffffffffffffff161461173c576040517f08c379a000000000000000000000000000000000000000000000000000000000815260040161173390613bbd565b60405180910390fd5b600073ffffffffffffffffffffffffffffffffffffffff168173ffffffffffffffffffffffffffffffffffffffff16036117ab576040517f08c379a00000000000000000000000000000000000000000000000000000000081526004016117a29061427e565b60405180910390fd5b6117b481612305565b50565b60007f01ffc9a7000000000000000000000000000000000000000000000000000000007bffffffffffffffffffffffffffffffffffffffffffffffffffffffff1916827bffffffffffffffffffffffffffffffffffffffffffffffffffffffff1916149050919050565b600033905090565b600073ffffffffffffffffffffffffffffffffffffffff168473ffffffffffffffffffffffffffffffffffffffff1603611898576040517f08c379a000000000000000000000000000000000000000000000000000000000815260040161188f90614310565b60405180910390fd5b81518351146118dc576040517f08c379a00000000000000000000000000000000000000000000000000000000081526004016118d3906143a2565b60405180910390fd5b60006118e6611821565b90506118f781600087878787612ab5565b60005b84518110156119b1578381815181106119165761191561402b565b5b6020026020010151600160008784815181106119355761193461402b565b5b6020026020010151815260200190815260200160002060008873ffffffffffffffffffffffffffffffffffffffff1673ffffffffffffffffffffffffffffffffffffffff16815260200190815260200160002060008282546119979190613c0c565b9250508190555080806119a99061405a565b9150506118fa565b508473ffffffffffffffffffffffffffffffffffffffff16600073ffffffffffffffffffffffffffffffffffffffff168273ffffffffffffffffffffffffffffffffffffffff167f4a39dc06d4c0dbc64b70af90fd698a233a518aa5d07e595d983b8c0526c8f7fb8787604051611a299291906143c2565b60405180910390a4611a4081600087878787612abd565b5050505050565b606060008203611a8e576040518060400160405280600181526020017f30000000000000000000000000000000000000000000000000000000000000008152509050611ba2565b600082905060005b60008214611ac0578080611aa99061405a565b915050600a82611ab99190614428565b9150611a96565b60008167ffffffffffffffff811115611adc57611adb6132fe565b5b6040519080825280601f01601f191660200182016040528015611b0e5781602001600182028036833780820191505090505b5090505b60008514611b9b57600182611b279190614459565b9150600a85611b36919061448d565b6030611b429190613c0c565b60f81b818381518110611b5857611b5761402b565b5b60200101907effffffffffffffffffffffffffffffffffffffffffffffffffffffffffffff1916908160001a905350600a85611b949190614428565b9450611b12565b8093505050505b919050565b8151835114611beb576040517f08c379a0000000000000000000000000000000000000000000000000000000008152600401611be2906143a2565b60405180910390fd5b600073ffffffffffffffffffffffffffffffffffffffff168473ffffffffffffffffffffffffffffffffffffffff1603611c5a576040517f08c379a0000000000000000000000000000000000000000000000000000000008152600401611c5190614530565b60405180910390fd5b6000611c64611821565b9050611c74818787878787612ab5565b60005b8451811015611e28576000858281518110611c9557611c9461402b565b5b602002602001015190506000858381518110611cb457611cb361402b565b5b6020026020010151905060006001600084815260200190815260200160002060008b73ffffffffffffffffffffffffffffffffffffffff1673ffffffffffffffffffffffffffffffffffffffff16815260200190815260200160002054905081811015611d56576040517f08c379a0000000000000000000000000000000000000000000000000000000008152600401611d4d906145c2565b60405180910390fd5b8181036001600085815260200190815260200160002060008c73ffffffffffffffffffffffffffffffffffffffff1673ffffffffffffffffffffffffffffffffffffffff16815260200190815260200160002081905550816001600085815260200190815260200160002060008b73ffffffffffffffffffffffffffffffffffffffff1673ffffffffffffffffffffffffffffffffffffffff1681526020019081526020016000206000828254611e0d9190613c0c565b9250508190555050505080611e219061405a565b9050611c77565b508473ffffffffffffffffffffffffffffffffffffffff168673ffffffffffffffffffffffffffffffffffffffff168273ffffffffffffffffffffffffffffffffffffffff167f4a39dc06d4c0dbc64b70af90fd698a233a518aa5d07e595d983b8c0526c8f7fb8787604051611e9f9291906143c2565b60405180910390a4611eb5818787878787612abd565b505050505050565b600073ffffffffffffffffffffffffffffffffffffffff168373ffffffffffffffffffffffffffffffffffffffff1603611f2c576040517f08c379a0000000000000000000000000000000000000000000000000000000008152600401611f2390614654565b60405180910390fd5b8051825114611f70576040517f08c379a0000000000000000000000000000000000000000000000000000000008152600401611f67906143a2565b60405180910390fd5b6000611f7a611821565b9050611f9a81856000868660405180602001604052806000815250612ab5565b60005b83518110156120e9576000848281518110611fbb57611fba61402b565b5b602002602001015190506000848381518110611fda57611fd961402b565b5b6020026020010151905060006001600084815260200190815260200160002060008973ffffffffffffffffffffffffffffffffffffffff1673ffffffffffffffffffffffffffffffffffffffff1681526020019081526020016000205490508181101561207c576040517f08c379a0000000000000000000000000000000000000000000000000000000008152600401612073906146e6565b60405180910390fd5b8181036001600085815260200190815260200160002060008a73ffffffffffffffffffffffffffffffffffffffff1673ffffffffffffffffffffffffffffffffffffffff1681526020019081526020016000208190555050505080806120e19061405a565b915050611f9d565b50600073ffffffffffffffffffffffffffffffffffffffff168473ffffffffffffffffffffffffffffffffffffffff168273ffffffffffffffffffffffffffffffffffffffff167f4a39dc06d4c0dbc64b70af90fd698a233a518aa5d07e595d983b8c0526c8f7fb86866040516121619291906143c2565b60405180910390a450505050565b600073ffffffffffffffffffffffffffffffffffffffff168473ffffffffffffffffffffffffffffffffffffffff16036121de576040517f08c379a00000000000000000000000000000000000000000000000000000000081526004016121d590614310565b60405180910390fd5b60006121e8611821565b9050612209816000876121fa88612c94565b61220388612c94565b87612ab5565b826001600086815260200190815260200160002060008773ffffffffffffffffffffffffffffffffffffffff1673ffffffffffffffffffffffffffffffffffffffff16815260200190815260200160002060008282546122699190613c0c565b925050819055508473ffffffffffffffffffffffffffffffffffffffff16600073ffffffffffffffffffffffffffffffffffffffff168273ffffffffffffffffffffffffffffffffffffffff167fc3d58168c5ae7397731d063d5bbf3d657854427343f4c083240f7aacaa2d0f6287876040516122e7929190614706565b60405180910390a46122fe81600087878787612d0e565b5050505050565b60008060009054906101000a900473ffffffffffffffffffffffffffffffffffffffff169050816000806101000a81548173ffffffffffffffffffffffffffffffffffffffff021916908373ffffffffffffffffffffffffffffffffffffffff1602179055508173ffffffffffffffffffffffffffffffffffffffff168173ffffffffffffffffffffffffffffffffffffffff167f8be0079c531659141344cd1fd0a4f28419497f9722a3daafe3b4186f6b6457e060405160405180910390a35050565b600073ffffffffffffffffffffffffffffffffffffffff168373ffffffffffffffffffffffffffffffffffffffff1603612438576040517f08c379a000000000000000000000000000000000000000000000000000000000815260040161242f90614654565b60405180910390fd5b6000612442611821565b90506124728185600061245487612c94565b61245d87612c94565b60405180602001604052806000815250612ab5565b60006001600085815260200190815260200160002060008673ffffffffffffffffffffffffffffffffffffffff1673ffffffffffffffffffffffffffffffffffffffff1681526020019081526020016000205490508281101561250a576040517f08c379a0000000000000000000000000000000000000000000000000000000008152600401612501906146e6565b60405180910390fd5b8281036001600086815260200190815260200160002060008773ffffffffffffffffffffffffffffffffffffffff1673ffffffffffffffffffffffffffffffffffffffff16815260200190815260200160002081905550600073ffffffffffffffffffffffffffffffffffffffff168573ffffffffffffffffffffffffffffffffffffffff168373ffffffffffffffffffffffffffffffffffffffff167fc3d58168c5ae7397731d063d5bbf3d657854427343f4c083240f7aacaa2d0f6287876040516125d8929190614706565b60405180910390a45050505050565b6000804342336040516020016125fd9190613928565b6040516020818303038152906040528051906020012060001c6126209190614428565b600854600760405160200161263591906147af565b6040516020818303038152906040528051906020012060001c6126589190613c0c565b6126629190613c0c565b61266c9190613c0c565b90506001600a808361267e9190614428565b61268891906147d1565b826126939190614459565b61269d9190613c0c565b905060058111156126bd576005816126b59190614459565b9150506126c2565b809150505b90565b8173ffffffffffffffffffffffffffffffffffffffff168373ffffffffffffffffffffffffffffffffffffffff1603612733576040517f08c379a000000000000000000000000000000000000000000000000000000000815260040161272a9061489d565b60405180910390fd5b80600260008573ffffffffffffffffffffffffffffffffffffffff1673ffffffffffffffffffffffffffffffffffffffff16815260200190815260200160002060008473ffffffffffffffffffffffffffffffffffffffff1673ffffffffffffffffffffffffffffffffffffffff16815260200190815260200160002060006101000a81548160ff0219169083151502179055508173ffffffffffffffffffffffffffffffffffffffff168373ffffffffffffffffffffffffffffffffffffffff167f17307eab39ab6107e8899845ad3d59bd9653f200f220920489ca2b5937696c318360405161282491906131da565b60405180910390a3505050565b600073ffffffffffffffffffffffffffffffffffffffff168473ffffffffffffffffffffffffffffffffffffffff16036128a0576040517f08c379a000000000000000000000000000000000000000000000000000000000815260040161289790614530565b60405180910390fd5b60006128aa611821565b90506128ca8187876128bb88612c94565b6128c488612c94565b87612ab5565b60006001600086815260200190815260200160002060008873ffffffffffffffffffffffffffffffffffffffff1673ffffffffffffffffffffffffffffffffffffffff16815260200190815260200160002054905083811015612962576040517f08c379a0000000000000000000000000000000000000000000000000000000008152600401612959906145c2565b60405180910390fd5b8381036001600087815260200190815260200160002060008973ffffffffffffffffffffffffffffffffffffffff1673ffffffffffffffffffffffffffffffffffffffff16815260200190815260200160002081905550836001600087815260200190815260200160002060008873ffffffffffffffffffffffffffffffffffffffff1673ffffffffffffffffffffffffffffffffffffffff1681526020019081526020016000206000828254612a199190613c0c565b925050819055508573ffffffffffffffffffffffffffffffffffffffff168773ffffffffffffffffffffffffffffffffffffffff168373ffffffffffffffffffffffffffffffffffffffff167fc3d58168c5ae7397731d063d5bbf3d657854427343f4c083240f7aacaa2d0f628888604051612a96929190614706565b60405180910390a4612aac828888888888612d0e565b50505050505050565b505050505050565b612adc8473ffffffffffffffffffffffffffffffffffffffff16612ee5565b15612c8c578373ffffffffffffffffffffffffffffffffffffffff1663bc197c8187878686866040518663ffffffff1660e01b8152600401612b22959493929190614912565b6020604051808303816000875af1925050508015612b5e57506040513d601f19601f82011682018060405250810190612b5b919061498f565b60015b612c0357612b6a6149c9565b806308c379a003612bc65750612b7e6149eb565b80612b895750612bc8565b806040517f08c379a0000000000000000000000000000000000000000000000000000000008152600401612bbd91906132d7565b60405180910390fd5b505b6040517f08c379a0000000000000000000000000000000000000000000000000000000008152600401612bfa90614aed565b60405180910390fd5b63bc197c8160e01b7bffffffffffffffffffffffffffffffffffffffffffffffffffffffff1916817bffffffffffffffffffffffffffffffffffffffffffffffffffffffff191614612c8a576040517f08c379a0000000000000000000000000000000000000000000000000000000008152600401612c8190614b7f565b60405180910390fd5b505b505050505050565b60606000600167ffffffffffffffff811115612cb357612cb26132fe565b5b604051908082528060200260200182016040528015612ce15781602001602082028036833780820191505090505b5090508281600081518110612cf957612cf861402b565b5b60200260200101818152505080915050919050565b612d2d8473ffffffffffffffffffffffffffffffffffffffff16612ee5565b15612edd578373ffffffffffffffffffffffffffffffffffffffff1663f23a6e6187878686866040518663ffffffff1660e01b8152600401612d73959493929190614b9f565b6020604051808303816000875af1925050508015612daf57506040513d601f19601f82011682018060405250810190612dac919061498f565b60015b612e5457612dbb6149c9565b806308c379a003612e175750612dcf6149eb565b80612dda5750612e19565b806040517f08c379a0000000000000000000000000000000000000000000000000000000008152600401612e0e91906132d7565b60405180910390fd5b505b6040517f08c379a0000000000000000000000000000000000000000000000000000000008152600401612e4b90614aed565b60405180910390fd5b63f23a6e6160e01b7bffffffffffffffffffffffffffffffffffffffffffffffffffffffff1916817bffffffffffffffffffffffffffffffffffffffffffffffffffffffff191614612edb576040517f08c379a0000000000000000000000000000000000000000000000000000000008152600401612ed290614b7f565b60405180910390fd5b505b505050505050565b6000808273ffffffffffffffffffffffffffffffffffffffff163b119050919050565b828054612f1490613c91565b90600052602060002090601f016020900481019282612f365760008555612f7d565b82601f10612f4f57805160ff1916838001178555612f7d565b82800160010185558215612f7d579182015b82811115612f7c578251825591602001919060010190612f61565b5b509050612f8a9190612f8e565b5090565b5b80821115612fa7576000816000905550600101612f8f565b5090565b600082825260208201905092915050565b7f446f206e6f742073656e6420457468657220746f206d65210000000000000000600082015250565b6000612ff2601883612fab565b9150612ffd82612fbc565b602082019050919050565b6000602082019050818103600083015261302181612fe5565b9050919050565b6000604051905090565b600080fd5b600080fd5b600073ffffffffffffffffffffffffffffffffffffffff82169050919050565b60006130678261303c565b9050919050565b6130778161305c565b811461308257600080fd5b50565b6000813590506130948161306e565b92915050565b6000819050919050565b6130ad8161309a565b81146130b857600080fd5b50565b6000813590506130ca816130a4565b92915050565b600080604083850312156130e7576130e6613032565b5b60006130f585828601613085565b9250506020613106858286016130bb565b9150509250929050565b6131198161309a565b82525050565b60006020820190506131346000830184613110565b92915050565b60007fffffffff0000000000000000000000000000000000000000000000000000000082169050919050565b61316f8161313a565b811461317a57600080fd5b50565b60008135905061318c81613166565b92915050565b6000602082840312156131a8576131a7613032565b5b60006131b68482850161317d565b91505092915050565b60008115159050919050565b6131d4816131bf565b82525050565b60006020820190506131ef60008301846131cb565b92915050565b60006020828403121561320b5761320a613032565b5b600061321984828501613085565b91505092915050565b60006020828403121561323857613237613032565b5b6000613246848285016130bb565b91505092915050565b600081519050919050565b60005b8381101561327857808201518184015260208101905061325d565b83811115613287576000848401525b50505050565b6000601f19601f8301169050919050565b60006132a98261324f565b6132b38185612fab565b93506132c381856020860161325a565b6132cc8161328d565b840191505092915050565b600060208201905081810360008301526132f1818461329e565b905092915050565b600080fd5b7f4e487b7100000000000000000000000000000000000000000000000000000000600052604160045260246000fd5b6133368261328d565b810181811067ffffffffffffffff82111715613355576133546132fe565b5b80604052505050565b6000613368613028565b9050613374828261332d565b919050565b600067ffffffffffffffff821115613394576133936132fe565b5b602082029050602081019050919050565b600080fd5b60006133bd6133b884613379565b61335e565b905080838252602082019050602084028301858111156133e0576133df6133a5565b5b835b8181101561340957806133f588826130bb565b8452602084019350506020810190506133e2565b5050509392505050565b600082601f830112613428576134276132f9565b5b81356134388482602086016133aa565b91505092915050565b600080fd5b600067ffffffffffffffff821115613461576134606132fe565b5b61346a8261328d565b9050602081019050919050565b82818337600083830152505050565b600061349961349484613446565b61335e565b9050828152602081018484840111156134b5576134b4613441565b5b6134c0848285613477565b509392505050565b600082601f8301126134dd576134dc6132f9565b5b81356134ed848260208601613486565b91505092915050565b600080600080600060a0868803121561351257613511613032565b5b600061352088828901613085565b955050602061353188828901613085565b945050604086013567ffffffffffffffff81111561355257613551613037565b5b61355e88828901613413565b935050606086013567ffffffffffffffff81111561357f5761357e613037565b5b61358b88828901613413565b925050608086013567ffffffffffffffff8111156135ac576135ab613037565b5b6135b8888289016134c8565b9150509295509295909350565b600067ffffffffffffffff8211156135e0576135df6132fe565b5b6135e98261328d565b9050602081019050919050565b6000613609613604846135c5565b61335e565b90508281526020810184848401111561362557613624613441565b5b613630848285613477565b509392505050565b600082601f83011261364d5761364c6132f9565b5b813561365d8482602086016135f6565b91505092915050565b6000806040838503121561367d5761367c613032565b5b600083013567ffffffffffffffff81111561369b5761369a613037565b5b6136a785828601613638565b92505060206136b8858286016130bb565b9150509250929050565b600067ffffffffffffffff8211156136dd576136dc6132fe565b5b602082029050602081019050919050565b60006137016136fc846136c2565b61335e565b90508083825260208201905060208402830185811115613724576137236133a5565b5b835b8181101561374d57806137398882613085565b845260208401935050602081019050613726565b5050509392505050565b600082601f83011261376c5761376b6132f9565b5b813561377c8482602086016136ee565b91505092915050565b6000806040838503121561379c5761379b613032565b5b600083013567ffffffffffffffff8111156137ba576137b9613037565b5b6137c685828601613757565b925050602083013567ffffffffffffffff8111156137e7576137e6613037565b5b6137f385828601613413565b9150509250929050565b600081519050919050565b600082825260208201905092915050565b6000819050602082019050919050565b6138328161309a565b82525050565b60006138448383613829565b60208301905092915050565b6000602082019050919050565b6000613868826137fd565b6138728185613808565b935061387d83613819565b8060005b838110156138ae5781516138958882613838565b97506138a083613850565b925050600181019050613881565b5085935050505092915050565b600060208201905081810360008301526138d5818461385d565b905092915050565b60006138e88261303c565b9050919050565b6138f8816138dd565b82525050565b600060208201905061391360008301846138ef565b92915050565b6139228161305c565b82525050565b600060208201905061393d6000830184613919565b92915050565b61394c816131bf565b811461395757600080fd5b50565b60008135905061396981613943565b92915050565b6000806040838503121561398657613985613032565b5b600061399485828601613085565b92505060206139a58582860161395a565b9150509250929050565b6139b8816138dd565b81146139c357600080fd5b50565b6000813590506139d5816139af565b92915050565b6000602082840312156139f1576139f0613032565b5b60006139ff848285016139c6565b91505092915050565b60008060408385031215613a1f57613a1e613032565b5b6000613a2d85828601613085565b9250506020613a3e85828601613085565b9150509250929050565b600080600080600060a08688031215613a6457613a63613032565b5b6000613a7288828901613085565b9550506020613a8388828901613085565b9450506040613a94888289016130bb565b9350506060613aa5888289016130bb565b925050608086013567ffffffffffffffff811115613ac657613ac5613037565b5b613ad2888289016134c8565b9150509295509295909350565b7f455243313135353a2062616c616e636520717565727920666f7220746865207a60008201527f65726f2061646472657373000000000000000000000000000000000000000000602082015250565b6000613b3b602b83612fab565b9150613b4682613adf565b604082019050919050565b60006020820190508181036000830152613b6a81613b2e565b9050919050565b7f4f776e61626c653a2063616c6c6572206973206e6f7420746865206f776e6572600082015250565b6000613ba7602083612fab565b9150613bb282613b71565b602082019050919050565b60006020820190508181036000830152613bd681613b9a565b9050919050565b7f4e487b7100000000000000000000000000000000000000000000000000000000600052601160045260246000fd5b6000613c178261309a565b9150613c228361309a565b9250827fffffffffffffffffffffffffffffffffffffffffffffffffffffffffffffffff03821115613c5757613c56613bdd565b5b828201905092915050565b7f4e487b7100000000000000000000000000000000000000000000000000000000600052602260045260246000fd5b60006002820490506001821680613ca957607f821691505b602082108103613cbc57613cbb613c62565b5b50919050565b600081905092915050565b60008190508160005260206000209050919050565b60008154613cef81613c91565b613cf98186613cc2565b94506001821660008114613d145760018114613d2557613d58565b60ff19831686528186019350613d58565b613d2e85613ccd565b60005b83811015613d5057815481890152600182019150602081019050613d31565b838801955050505b50505092915050565b6000613d6c8261324f565b613d768185613cc2565b9350613d8681856020860161325a565b80840191505092915050565b6000613d9e8286613ce2565b9150613daa8285613d61565b9150613db68284613ce2565b9150819050949350505050565b7f455243313135353a207472616e736665722063616c6c6572206973206e6f742060008201527f6f776e6572206e6f7220617070726f7665640000000000000000000000000000602082015250565b6000613e1f603283612fab565b9150613e2a82613dc3565b604082019050919050565b60006020820190508181036000830152613e4e81613e12565b9050919050565b7f4f6e6c792033204e6674732061726520617661696c61626c6500000000000000600082015250565b6000613e8b601983612fab565b9150613e9682613e55565b602082019050919050565b60006020820190508181036000830152613eba81613e7e565b9050919050565b7f427579657227732061646472657373206d757374206e6f7420626520302e0000600082015250565b6000613ef7601e83612fab565b9150613f0282613ec1565b602082019050919050565b60006020820190508181036000830152613f2681613eea565b9050919050565b7f546865205072696365206d75737420626520302e3030312065746865722e0000600082015250565b6000613f63601e83612fab565b9150613f6e82613f2d565b602082019050919050565b60006020820190508181036000830152613f9281613f56565b9050919050565b7f455243313135353a206163636f756e747320616e6420696473206c656e67746860008201527f206d69736d617463680000000000000000000000000000000000000000000000602082015250565b6000613ff5602983612fab565b915061400082613f99565b604082019050919050565b6000602082019050818103600083015261402481613fe8565b9050919050565b7f4e487b7100000000000000000000000000000000000000000000000000000000600052603260045260246000fd5b60006140658261309a565b91507fffffffffffffffffffffffffffffffffffffffffffffffffffffffffffffffff820361409757614096613bdd565b5b600182019050919050565b7f427579657227732061646472657373206d757374206e6f742062652030000000600082015250565b60006140d8601d83612fab565b91506140e3826140a2565b602082019050919050565b60006020820190508181036000830152614107816140cb565b9050919050565b7f546865205072696365206d75737420626520302e303030312065746865722e00600082015250565b6000614144601f83612fab565b915061414f8261410e565b602082019050919050565b6000602082019050818103600083015261417381614137565b9050919050565b7f455243313135353a2063616c6c6572206973206e6f74206f776e6572206e6f7260008201527f20617070726f7665640000000000000000000000000000000000000000000000602082015250565b60006141d6602983612fab565b91506141e18261417a565b604082019050919050565b60006020820190508181036000830152614205816141c9565b9050919050565b7f4f776e61626c653a206e6577206f776e657220697320746865207a65726f206160008201527f6464726573730000000000000000000000000000000000000000000000000000602082015250565b6000614268602683612fab565b91506142738261420c565b604082019050919050565b600060208201905081810360008301526142978161425b565b9050919050565b7f455243313135353a206d696e7420746f20746865207a65726f2061646472657360008201527f7300000000000000000000000000000000000000000000000000000000000000602082015250565b60006142fa602183612fab565b91506143058261429e565b604082019050919050565b60006020820190508181036000830152614329816142ed565b9050919050565b7f455243313135353a2069647320616e6420616d6f756e7473206c656e6774682060008201527f6d69736d61746368000000000000000000000000000000000000000000000000602082015250565b600061438c602883612fab565b915061439782614330565b604082019050919050565b600060208201905081810360008301526143bb8161437f565b9050919050565b600060408201905081810360008301526143dc818561385d565b905081810360208301526143f0818461385d565b90509392505050565b7f4e487b7100000000000000000000000000000000000000000000000000000000600052601260045260246000fd5b60006144338261309a565b915061443e8361309a565b92508261444e5761444d6143f9565b5b828204905092915050565b60006144648261309a565b915061446f8361309a565b92508282101561448257614481613bdd565b5b828203905092915050565b60006144988261309a565b91506144a38361309a565b9250826144b3576144b26143f9565b5b828206905092915050565b7f455243313135353a207472616e7366657220746f20746865207a65726f20616460008201527f6472657373000000000000000000000000000000000000000000000000000000602082015250565b600061451a602583612fab565b9150614525826144be565b604082019050919050565b600060208201905081810360008301526145498161450d565b9050919050565b7f455243313135353a20696e73756666696369656e742062616c616e636520666f60008201527f72207472616e7366657200000000000000000000000000000000000000000000602082015250565b60006145ac602a83612fab565b91506145b782614550565b604082019050919050565b600060208201905081810360008301526145db8161459f565b9050919050565b7f455243313135353a206275726e2066726f6d20746865207a65726f206164647260008201527f6573730000000000000000000000000000000000000000000000000000000000602082015250565b600061463e602383612fab565b9150614649826145e2565b604082019050919050565b6000602082019050818103600083015261466d81614631565b9050919050565b7f455243313135353a206275726e20616d6f756e7420657863656564732062616c60008201527f616e636500000000000000000000000000000000000000000000000000000000602082015250565b60006146d0602483612fab565b91506146db82614674565b604082019050919050565b600060208201905081810360008301526146ff816146c3565b9050919050565b600060408201905061471b6000830185613110565b6147286020830184613110565b9392505050565b6000815461473c81613c91565b6147468186612fab565b945060018216600081146147615760018114614773576147a6565b60ff19831686526020860193506147a6565b61477c85613ccd565b60005b8381101561479e5781548189015260018201915060208101905061477f565b808801955050505b50505092915050565b600060208201905081810360008301526147c9818461472f565b905092915050565b60006147dc8261309a565b91506147e78361309a565b9250817fffffffffffffffffffffffffffffffffffffffffffffffffffffffffffffffff04831182151516156148205761481f613bdd565b5b828202905092915050565b7f455243313135353a2073657474696e6720617070726f76616c2073746174757360008201527f20666f722073656c660000000000000000000000000000000000000000000000602082015250565b6000614887602983612fab565b91506148928261482b565b604082019050919050565b600060208201905081810360008301526148b68161487a565b9050919050565b600081519050919050565b600082825260208201905092915050565b60006148e4826148bd565b6148ee81856148c8565b93506148fe81856020860161325a565b6149078161328d565b840191505092915050565b600060a0820190506149276000830188613919565b6149346020830187613919565b8181036040830152614946818661385d565b9050818103606083015261495a818561385d565b9050818103608083015261496e81846148d9565b90509695505050505050565b60008151905061498981613166565b92915050565b6000602082840312156149a5576149a4613032565b5b60006149b38482850161497a565b91505092915050565b60008160e01c9050919050565b600060033d11156149e85760046000803e6149e56000516149bc565b90505b90565b600060443d10614a78576149fd613028565b60043d036004823e80513d602482011167ffffffffffffffff82111715614a25575050614a78565b808201805167ffffffffffffffff811115614a435750505050614a78565b80602083010160043d038501811115614a60575050505050614a78565b614a6f8260200185018661332d565b82955050505050505b90565b7f455243313135353a207472616e7366657220746f206e6f6e204552433131353560008201527f526563656976657220696d706c656d656e746572000000000000000000000000602082015250565b6000614ad7603483612fab565b9150614ae282614a7b565b604082019050919050565b60006020820190508181036000830152614b0681614aca565b9050919050565b7f455243313135353a204552433131353552656365697665722072656a6563746560008201527f6420746f6b656e73000000000000000000000000000000000000000000000000602082015250565b6000614b69602883612fab565b9150614b7482614b0d565b604082019050919050565b60006020820190508181036000830152614b9881614b5c565b9050919050565b600060a082019050614bb46000830188613919565b614bc16020830187613919565b614bce6040830186613110565b614bdb6060830185613110565b8181036080830152614bed81846148d9565b9050969550505050505056fea264697066735822122070a0be779a76c5dd5d3a6a9380353728903bac5828778037a18d639d915f2ddf64736f6c634300080d0033",
  "immutableReferences": {},
  "source": "// SPDX-License-Identifier: GPL-3.0\r\npragma solidity >=0.8.0 <0.9.0;\r\n\r\nimport \"@openzeppelin/contracts/token/ERC1155/ERC1155.sol\";\r\nimport \"@openzeppelin/contracts/access/Ownable.sol\";\r\nimport \"@openzeppelin/contracts/utils/Strings.sol\";\r\ncontract Eevee is Ownable,ERC1155(\"\") {\r\n    \r\n\r\n    uint public constant POKEMONBALL = 0;\r\n    uint public constant FIRESTONE = 1;\r\n    uint public constant DARKSTONE = 2;\r\n    uint public constant WATERSTONE = 3;\r\n    uint public constant LEAFSTONE = 4;\r\n    uint public constant EEVEE = 5;\r\n    uint public constant FLAREON = 6;\r\n    uint public constant UMBREON = 7;\r\n    uint public constant VAPOREAN = 8;\r\n    uint public constant LEAFEON = 9;\r\n    uint public constant SYLVEON = 10;\r\n\r\n\r\n\r\n\r\n\r\n    address payable public wallet; \r\n    uint public pokemonBallLimit = 1000;\r\n\r\n    uint private number;\r\n    string private key1;\r\n    uint private key2;\r\n\r\n    string private baseURI;\r\n    string private baseExtension = \".json\";\r\n    \r\n    uint[] private burnAllSet = [FLAREON,UMBREON,VAPOREAN,LEAFEON];\r\n    uint[] private burnAllSetAmount = [1,1,1,1];\r\n    uint public finalNftNum;\r\n    using Strings for uint256;\r\n\r\n    uint256[] private test_pokemonList = [POKEMONBALL,FIRESTONE,DARKSTONE,WATERSTONE,LEAFSTONE,EEVEE,FLAREON,UMBREON,VAPOREAN,LEAFEON,SYLVEON];\r\n    uint256[] private test_amountList = [1,1,1,1,1,1,1,1,1,1,1];\r\n\r\n\r\n    constructor(string memory _baseURI,address payable _wallet, string memory _key1, uint _key2) {\r\n        wallet = _wallet;\r\n        baseURI =_baseURI;\r\n        key1 = _key1;\r\n        key2 = _key2;\r\n    }\r\n\r\n    receive() external payable {\r\n        require(true,\"Do not send Ether to me!\");\r\n    }\r\n\r\n    function mintPokemonBall() public payable  {\r\n        require(_msgSender() != address(0), \"Buyer's address must not be 0\");\r\n        require(0.0001 ether == msg.value, \"The Price must be 0.0001 ether.\" );\r\n        _mint(_msgSender(),POKEMONBALL,1,\"\");\r\n        wallet.transfer(msg.value);\r\n    }\r\n    \r\n    function openPokemonBall() public payable {\r\n        require(_msgSender() != address(0), \"Buyer's address must not be 0.\");\r\n        require(0.0001 ether == msg.value, \"The Price must be 0.0001 ether.\" );\r\n        _burn(_msgSender(),POKEMONBALL,1);\r\n        _mint(_msgSender(),getRandom(),1,\"\");\r\n        wallet.transfer(msg.value);\r\n    }\r\n\r\n\r\n    function evolveEevee(uint _id) public payable {\r\n        require(_msgSender() != address(0), \"Buyer's address must not be 0.\");\r\n        require(0.0001 ether == msg.value, \"The Price must be 0.001 ether.\" );\r\n        _burn(_msgSender(),EEVEE,1);\r\n        _burn(_msgSender(),_id,1);\r\n        _mint(_msgSender(),(EEVEE+_id),1,\"\");\r\n        wallet.transfer(msg.value);\r\n    } \r\n    \r\n    function finalEvoluation() public payable {\r\n        require(finalNftNum < 4, \"Only 3 Nfts are available\");\r\n        require(_msgSender() != address(0), \"Buyer's address must not be 0.\");\r\n        require(0.0001 ether == msg.value, \"The Price must be 0.001 ether.\" );\r\n         finalNftNum =  finalNftNum + 1;\r\n        _burnBatch(_msgSender(),burnAllSet,burnAllSetAmount);\r\n        _mint(_msgSender(),SYLVEON,1,\"\");\r\n       \r\n        wallet.transfer(msg.value);\r\n    } \r\n\r\n    function changeSecrets(string memory _key1, uint _key2) public onlyOwner() {\r\n        key1 = _key1;\r\n        key2 = _key2;\r\n    }\r\n\r\n    //give a random number between 1 and 5\r\n\r\n    function getRandom() internal view returns(uint) {\r\n        uint randomNum = uint(keccak256(abi.encode(key1))) + key2 + uint256(keccak256(abi.encode(msg.sender)))/(block.timestamp) + (block.number);\r\n        randomNum = (randomNum - ((randomNum/10)*10)) + 1;\r\n        if(randomNum>5) {\r\n            return randomNum - 5;\r\n        }else {\r\n            return randomNum;\r\n        }\r\n    }\r\n    function uri(uint _tokenId) public view override returns (string memory) {\r\n        return bytes(baseURI).length > 0 ? string(abi.encodePacked(baseURI, _tokenId.toString(), baseExtension)) : \"\";\r\n    \r\n    }\r\n\r\n    function setWallet(address payable _wallet) public onlyOwner() {\r\n        wallet = _wallet;\r\n    }\r\n\r\n    function test_getAll(address _receiver) public onlyOwner() {\r\n        finalNftNum =  finalNftNum + 1;//for sylveon\r\n        _mintBatch(_receiver,test_pokemonList,test_amountList,\"\");\r\n \r\n    }\r\n    \r\n}\r\n",
  "sourcePath": "H:\\Portfolio\\truffle\\contracts\\Eevee_ERC1155\\Eevee.sol",
  "compiler": {
    "name": "solc",
    "version": "0.8.13+commit.abaa5c0e.Emscripten.clang"
  },
  "schemaVersion": "3.4.7",
  "updatedAt": "2022-07-02T16:26:56.939Z",
  "networkType": "ethereum",
  "devdoc": {
    "kind": "dev",
    "methods": {
      "balanceOf(address,uint256)": {
        "details": "See {IERC1155-balanceOf}. Requirements: - `account` cannot be the zero address."
      },
      "balanceOfBatch(address[],uint256[])": {
        "details": "See {IERC1155-balanceOfBatch}. Requirements: - `accounts` and `ids` must have the same length."
      },
      "isApprovedForAll(address,address)": {
        "details": "See {IERC1155-isApprovedForAll}."
      },
      "owner()": {
        "details": "Returns the address of the current owner."
      },
      "renounceOwnership()": {
        "details": "Leaves the contract without owner. It will not be possible to call `onlyOwner` functions anymore. Can only be called by the current owner. NOTE: Renouncing ownership will leave the contract without an owner, thereby removing any functionality that is only available to the owner."
      },
      "safeBatchTransferFrom(address,address,uint256[],uint256[],bytes)": {
        "details": "See {IERC1155-safeBatchTransferFrom}."
      },
      "safeTransferFrom(address,address,uint256,uint256,bytes)": {
        "details": "See {IERC1155-safeTransferFrom}."
      },
      "setApprovalForAll(address,bool)": {
        "details": "See {IERC1155-setApprovalForAll}."
      },
      "supportsInterface(bytes4)": {
        "details": "See {IERC165-supportsInterface}."
      },
      "transferOwnership(address)": {
        "details": "Transfers ownership of the contract to a new account (`newOwner`). Can only be called by the current owner."
      }
    },
    "version": 1
  },
  "userdoc": {
    "kind": "user",
    "methods": {},
    "version": 1
  }
}