{
  "contractName": "MotherNature",
  "abi": [
    {
      "inputs": [
        {
          "internalType": "string",
          "name": "_name",
          "type": "string"
        },
        {
          "internalType": "string",
          "name": "_symbol",
          "type": "string"
        },
        {
          "internalType": "address payable",
          "name": "_wallet",
          "type": "address"
        },
        {
          "internalType": "string",
          "name": "_nftsBaseURI",
          "type": "string"
        },
        {
          "internalType": "uint256",
          "name": "_timeToRevel",
          "type": "uint256"
        }
      ],
      "stateMutability": "nonpayable",
      "type": "constructor"
    },
    {
      "anonymous": false,
      "inputs": [
        {
          "indexed": true,
          "internalType": "address",
          "name": "owner",
          "type": "address"
        },
        {
          "indexed": true,
          "internalType": "address",
          "name": "approved",
          "type": "address"
        },
        {
          "indexed": true,
          "internalType": "uint256",
          "name": "tokenId",
          "type": "uint256"
        }
      ],
      "name": "Approval",
      "type": "event"
    },
    {
      "anonymous": false,
      "inputs": [
        {
          "indexed": true,
          "internalType": "address",
          "name": "owner",
          "type": "address"
        },
        {
          "indexed": true,
          "internalType": "address",
          "name": "operator",
          "type": "address"
        },
        {
          "indexed": false,
          "internalType": "bool",
          "name": "approved",
          "type": "bool"
        }
      ],
      "name": "ApprovalForAll",
      "type": "event"
    },
    {
      "anonymous": false,
      "inputs": [
        {
          "indexed": true,
          "internalType": "address",
          "name": "previousOwner",
          "type": "address"
        },
        {
          "indexed": true,
          "internalType": "address",
          "name": "newOwner",
          "type": "address"
        }
      ],
      "name": "OwnershipTransferred",
      "type": "event"
    },
    {
      "anonymous": false,
      "inputs": [
        {
          "indexed": true,
          "internalType": "address",
          "name": "from",
          "type": "address"
        },
        {
          "indexed": true,
          "internalType": "address",
          "name": "to",
          "type": "address"
        },
        {
          "indexed": true,
          "internalType": "uint256",
          "name": "tokenId",
          "type": "uint256"
        }
      ],
      "name": "Transfer",
      "type": "event"
    },
    {
      "inputs": [
        {
          "internalType": "address",
          "name": "to",
          "type": "address"
        },
        {
          "internalType": "uint256",
          "name": "tokenId",
          "type": "uint256"
        }
      ],
      "name": "approve",
      "outputs": [],
      "stateMutability": "nonpayable",
      "type": "function"
    },
    {
      "inputs": [
        {
          "internalType": "address",
          "name": "owner",
          "type": "address"
        }
      ],
      "name": "balanceOf",
      "outputs": [
        {
          "internalType": "uint256",
          "name": "",
          "type": "uint256"
        }
      ],
      "stateMutability": "view",
      "type": "function",
      "constant": true
    },
    {
      "inputs": [],
      "name": "dummyURL",
      "outputs": [
        {
          "internalType": "string",
          "name": "",
          "type": "string"
        }
      ],
      "stateMutability": "view",
      "type": "function",
      "constant": true
    },
    {
      "inputs": [
        {
          "internalType": "uint256",
          "name": "tokenId",
          "type": "uint256"
        }
      ],
      "name": "getApproved",
      "outputs": [
        {
          "internalType": "address",
          "name": "",
          "type": "address"
        }
      ],
      "stateMutability": "view",
      "type": "function",
      "constant": true
    },
    {
      "inputs": [
        {
          "internalType": "address",
          "name": "owner",
          "type": "address"
        },
        {
          "internalType": "address",
          "name": "operator",
          "type": "address"
        }
      ],
      "name": "isApprovedForAll",
      "outputs": [
        {
          "internalType": "bool",
          "name": "",
          "type": "bool"
        }
      ],
      "stateMutability": "view",
      "type": "function",
      "constant": true
    },
    {
      "inputs": [],
      "name": "limit",
      "outputs": [
        {
          "internalType": "uint256",
          "name": "",
          "type": "uint256"
        }
      ],
      "stateMutability": "view",
      "type": "function",
      "constant": true
    },
    {
      "inputs": [],
      "name": "name",
      "outputs": [
        {
          "internalType": "string",
          "name": "",
          "type": "string"
        }
      ],
      "stateMutability": "view",
      "type": "function",
      "constant": true
    },
    {
      "inputs": [],
      "name": "owner",
      "outputs": [
        {
          "internalType": "address",
          "name": "",
          "type": "address"
        }
      ],
      "stateMutability": "view",
      "type": "function",
      "constant": true
    },
    {
      "inputs": [
        {
          "internalType": "uint256",
          "name": "tokenId",
          "type": "uint256"
        }
      ],
      "name": "ownerOf",
      "outputs": [
        {
          "internalType": "address",
          "name": "",
          "type": "address"
        }
      ],
      "stateMutability": "view",
      "type": "function",
      "constant": true
    },
    {
      "inputs": [],
      "name": "price",
      "outputs": [
        {
          "internalType": "uint256",
          "name": "",
          "type": "uint256"
        }
      ],
      "stateMutability": "view",
      "type": "function",
      "constant": true
    },
    {
      "inputs": [],
      "name": "renounceOwnership",
      "outputs": [],
      "stateMutability": "nonpayable",
      "type": "function"
    },
    {
      "inputs": [
        {
          "internalType": "address",
          "name": "from",
          "type": "address"
        },
        {
          "internalType": "address",
          "name": "to",
          "type": "address"
        },
        {
          "internalType": "uint256",
          "name": "tokenId",
          "type": "uint256"
        }
      ],
      "name": "safeTransferFrom",
      "outputs": [],
      "stateMutability": "nonpayable",
      "type": "function"
    },
    {
      "inputs": [
        {
          "internalType": "address",
          "name": "from",
          "type": "address"
        },
        {
          "internalType": "address",
          "name": "to",
          "type": "address"
        },
        {
          "internalType": "uint256",
          "name": "tokenId",
          "type": "uint256"
        },
        {
          "internalType": "bytes",
          "name": "_data",
          "type": "bytes"
        }
      ],
      "name": "safeTransferFrom",
      "outputs": [],
      "stateMutability": "nonpayable",
      "type": "function"
    },
    {
      "inputs": [
        {
          "internalType": "address",
          "name": "operator",
          "type": "address"
        },
        {
          "internalType": "bool",
          "name": "approved",
          "type": "bool"
        }
      ],
      "name": "setApprovalForAll",
      "outputs": [],
      "stateMutability": "nonpayable",
      "type": "function"
    },
    {
      "inputs": [
        {
          "internalType": "bytes4",
          "name": "interfaceId",
          "type": "bytes4"
        }
      ],
      "name": "supportsInterface",
      "outputs": [
        {
          "internalType": "bool",
          "name": "",
          "type": "bool"
        }
      ],
      "stateMutability": "view",
      "type": "function",
      "constant": true
    },
    {
      "inputs": [],
      "name": "symbol",
      "outputs": [
        {
          "internalType": "string",
          "name": "",
          "type": "string"
        }
      ],
      "stateMutability": "view",
      "type": "function",
      "constant": true
    },
    {
      "inputs": [
        {
          "internalType": "uint256",
          "name": "index",
          "type": "uint256"
        }
      ],
      "name": "tokenByIndex",
      "outputs": [
        {
          "internalType": "uint256",
          "name": "",
          "type": "uint256"
        }
      ],
      "stateMutability": "view",
      "type": "function",
      "constant": true
    },
    {
      "inputs": [
        {
          "internalType": "address",
          "name": "owner",
          "type": "address"
        },
        {
          "internalType": "uint256",
          "name": "index",
          "type": "uint256"
        }
      ],
      "name": "tokenOfOwnerByIndex",
      "outputs": [
        {
          "internalType": "uint256",
          "name": "",
          "type": "uint256"
        }
      ],
      "stateMutability": "view",
      "type": "function",
      "constant": true
    },
    {
      "inputs": [],
      "name": "totalSupply",
      "outputs": [
        {
          "internalType": "uint256",
          "name": "",
          "type": "uint256"
        }
      ],
      "stateMutability": "view",
      "type": "function",
      "constant": true
    },
    {
      "inputs": [
        {
          "internalType": "address",
          "name": "from",
          "type": "address"
        },
        {
          "internalType": "address",
          "name": "to",
          "type": "address"
        },
        {
          "internalType": "uint256",
          "name": "tokenId",
          "type": "uint256"
        }
      ],
      "name": "transferFrom",
      "outputs": [],
      "stateMutability": "nonpayable",
      "type": "function"
    },
    {
      "inputs": [
        {
          "internalType": "address",
          "name": "newOwner",
          "type": "address"
        }
      ],
      "name": "transferOwnership",
      "outputs": [],
      "stateMutability": "nonpayable",
      "type": "function"
    },
    {
      "inputs": [],
      "name": "wallet",
      "outputs": [
        {
          "internalType": "address payable",
          "name": "",
          "type": "address"
        }
      ],
      "stateMutability": "view",
      "type": "function",
      "constant": true
    },
    {
      "stateMutability": "payable",
      "type": "receive",
      "payable": true
    },
    {
      "inputs": [],
      "name": "mint",
      "outputs": [],
      "stateMutability": "payable",
      "type": "function",
      "payable": true
    },
    {
      "inputs": [
        {
          "internalType": "uint256",
          "name": "tokenId",
          "type": "uint256"
        }
      ],
      "name": "tokenURI",
      "outputs": [
        {
          "internalType": "string",
          "name": "",
          "type": "string"
        }
      ],
      "stateMutability": "view",
      "type": "function",
      "constant": true
    },
    {
      "inputs": [
        {
          "internalType": "uint256",
          "name": "_price",
          "type": "uint256"
        }
      ],
      "name": "setPrice",
      "outputs": [],
      "stateMutability": "nonpayable",
      "type": "function"
    },
    {
      "inputs": [
        {
          "internalType": "uint256",
          "name": "_limit",
          "type": "uint256"
        }
      ],
      "name": "setLimit",
      "outputs": [],
      "stateMutability": "nonpayable",
      "type": "function"
    },
    {
      "inputs": [
        {
          "internalType": "uint256",
          "name": "_timeToRevel",
          "type": "uint256"
        }
      ],
      "name": "setTimeToRevel",
      "outputs": [],
      "stateMutability": "nonpayable",
      "type": "function"
    },
    {
      "inputs": [],
      "name": "getNFTCID",
      "outputs": [
        {
          "internalType": "string",
          "name": "",
          "type": "string"
        }
      ],
      "stateMutability": "view",
      "type": "function",
      "constant": true
    },
    {
      "inputs": [
        {
          "internalType": "address",
          "name": "_owner",
          "type": "address"
        }
      ],
      "name": "OwnersNfts",
      "outputs": [
        {
          "internalType": "uint256[]",
          "name": "",
          "type": "uint256[]"
        }
      ],
      "stateMutability": "view",
      "type": "function",
      "constant": true
    },
    {
      "inputs": [
        {
          "internalType": "address",
          "name": "_owner",
          "type": "address"
        },
        {
          "internalType": "uint256",
          "name": "_limit",
          "type": "uint256"
        },
        {
          "internalType": "uint256",
          "name": "_offset",
          "type": "uint256"
        }
      ],
      "name": "getOwnersNftsURIs",
      "outputs": [
        {
          "internalType": "string[]",
          "name": "",
          "type": "string[]"
        }
      ],
      "stateMutability": "view",
      "type": "function",
      "constant": true
    },
    {
      "inputs": [],
      "name": "getLatestURI",
      "outputs": [
        {
          "internalType": "string",
          "name": "",
          "type": "string"
        }
      ],
      "stateMutability": "view",
      "type": "function",
      "constant": true
    }
  ],
  "bytecode": "0x60806040526040518060400160405280600581526020017f2e6a736f6e000000000000000000000000000000000000000000000000000000815250600e90805190602001906200005192919062000257565b5066038d7ea4c68000600f55606460105560405180608001604052806059815260200162004ac860599139601290805190602001906200009392919062000257565b50348015620000a157600080fd5b5060405162004b2138038062004b218339818101604052810190620000c7919062000544565b84848160009080519060200190620000e192919062000257565b508060019080519060200190620000fa92919062000257565b5050506200011d620001116200018960201b60201c565b6200019160201b60201c565b82600b60006101000a81548173ffffffffffffffffffffffffffffffffffffffff021916908373ffffffffffffffffffffffffffffffffffffffff16021790555081600d90805190602001906200017692919062000257565b508060118190555050505050506200068d565b600033905090565b6000600a60009054906101000a900473ffffffffffffffffffffffffffffffffffffffff16905081600a60006101000a81548173ffffffffffffffffffffffffffffffffffffffff021916908373ffffffffffffffffffffffffffffffffffffffff1602179055508173ffffffffffffffffffffffffffffffffffffffff168173ffffffffffffffffffffffffffffffffffffffff167f8be0079c531659141344cd1fd0a4f28419497f9722a3daafe3b4186f6b6457e060405160405180910390a35050565b828054620002659062000658565b90600052602060002090601f016020900481019282620002895760008555620002d5565b82601f10620002a457805160ff1916838001178555620002d5565b82800160010185558215620002d5579182015b82811115620002d4578251825591602001919060010190620002b7565b5b509050620002e49190620002e8565b5090565b5b8082111562000303576000816000905550600101620002e9565b5090565b6000604051905090565b600080fd5b600080fd5b600080fd5b600080fd5b6000601f19601f8301169050919050565b7f4e487b7100000000000000000000000000000000000000000000000000000000600052604160045260246000fd5b620003708262000325565b810181811067ffffffffffffffff8211171562000392576200039162000336565b5b80604052505050565b6000620003a762000307565b9050620003b5828262000365565b919050565b600067ffffffffffffffff821115620003d857620003d762000336565b5b620003e38262000325565b9050602081019050919050565b60005b8381101562000410578082015181840152602081019050620003f3565b8381111562000420576000848401525b50505050565b60006200043d6200043784620003ba565b6200039b565b9050828152602081018484840111156200045c576200045b62000320565b5b62000469848285620003f0565b509392505050565b600082601f8301126200048957620004886200031b565b5b81516200049b84826020860162000426565b91505092915050565b600073ffffffffffffffffffffffffffffffffffffffff82169050919050565b6000620004d182620004a4565b9050919050565b620004e381620004c4565b8114620004ef57600080fd5b50565b6000815190506200050381620004d8565b92915050565b6000819050919050565b6200051e8162000509565b81146200052a57600080fd5b50565b6000815190506200053e8162000513565b92915050565b600080600080600060a0868803121562000563576200056262000311565b5b600086015167ffffffffffffffff81111562000584576200058362000316565b5b620005928882890162000471565b955050602086015167ffffffffffffffff811115620005b657620005b562000316565b5b620005c48882890162000471565b9450506040620005d788828901620004f2565b935050606086015167ffffffffffffffff811115620005fb57620005fa62000316565b5b620006098882890162000471565b92505060806200061c888289016200052d565b9150509295509295909350565b7f4e487b7100000000000000000000000000000000000000000000000000000000600052602260045260246000fd5b600060028204905060018216806200067157607f821691505b60208210810362000687576200068662000629565b5b50919050565b61442b806200069d6000396000f3fe6080604052600436106101dc5760003560e01c80636352211e11610102578063a035b1fe11610095578063c87b56dd11610064578063c87b56dd146106fd578063e985e9c51461073a578063f2fde38b14610777578063f6531cbf146107a057610224565b8063a035b1fe14610655578063a22cb46514610680578063a4d66daf146106a9578063b88d4fde146106d457610224565b80638da5cb5b116100d15780638da5cb5b146105ad578063917d56e1146105d857806391b7f5ed1461060157806395d89b411461062a57610224565b80636352211e146104df57806370a082311461051c578063715018a6146105595780638ba026c21461057057610224565b806318160ddd1161017a5780632f745c59116101495780632f745c591461041157806342842e0e1461044e5780634f6ccce714610477578063521eb273146104b457610224565b806318160ddd1461035757806323b872dd14610382578063247999fa146103ab57806327ea6f2b146103e857610224565b8063088ce14d116101b6578063088ce14d146102ce578063095ea7b3146102f95780630b1114f0146103225780631249c58b1461034d57610224565b806301ffc9a71461022957806306fdde0314610266578063081812fc1461029157610224565b36610224576001610222576040517f08c379a000000000000000000000000000000000000000000000000000000000815260040161021990612ba7565b60405180910390fd5b005b600080fd5b34801561023557600080fd5b50610250600480360381019061024b9190612c33565b6107cb565b60405161025d9190612c7b565b60405180910390f35b34801561027257600080fd5b5061027b610845565b6040516102889190612d1e565b60405180910390f35b34801561029d57600080fd5b506102b860048036038101906102b39190612d76565b6108d7565b6040516102c59190612de4565b60405180910390f35b3480156102da57600080fd5b506102e361095c565b6040516102f09190612d1e565b60405180910390f35b34801561030557600080fd5b50610320600480360381019061031b9190612e2b565b6109a6565b005b34801561032e57600080fd5b50610337610abd565b6040516103449190612d1e565b60405180910390f35b610355610b4b565b005b34801561036357600080fd5b5061036c610ce2565b6040516103799190612e7a565b60405180910390f35b34801561038e57600080fd5b506103a960048036038101906103a49190612e95565b610cef565b005b3480156103b757600080fd5b506103d260048036038101906103cd9190612ee8565b610d4f565b6040516103df9190613047565b60405180910390f35b3480156103f457600080fd5b5061040f600480360381019061040a9190612d76565b610ec6565b005b34801561041d57600080fd5b5061043860048036038101906104339190612e2b565b610f4c565b6040516104459190612e7a565b60405180910390f35b34801561045a57600080fd5b5061047560048036038101906104709190612e95565b610ff1565b005b34801561048357600080fd5b5061049e60048036038101906104999190612d76565b611011565b6040516104ab9190612e7a565b60405180910390f35b3480156104c057600080fd5b506104c9611082565b6040516104d6919061308a565b60405180910390f35b3480156104eb57600080fd5b5061050660048036038101906105019190612d76565b6110a8565b6040516105139190612de4565b60405180910390f35b34801561052857600080fd5b50610543600480360381019061053e91906130a5565b611159565b6040516105509190612e7a565b60405180910390f35b34801561056557600080fd5b5061056e611210565b005b34801561057c57600080fd5b50610597600480360381019061059291906130a5565b611298565b6040516105a49190613190565b60405180910390f35b3480156105b957600080fd5b506105c2611346565b6040516105cf9190612de4565b60405180910390f35b3480156105e457600080fd5b506105ff60048036038101906105fa9190612d76565b611370565b005b34801561060d57600080fd5b5061062860048036038101906106239190612d76565b6113f6565b005b34801561063657600080fd5b5061063f61147c565b60405161064c9190612d1e565b60405180910390f35b34801561066157600080fd5b5061066a61150e565b6040516106779190612e7a565b60405180910390f35b34801561068c57600080fd5b506106a760048036038101906106a291906131de565b611514565b005b3480156106b557600080fd5b506106be61152a565b6040516106cb9190612e7a565b60405180910390f35b3480156106e057600080fd5b506106fb60048036038101906106f69190613353565b611530565b005b34801561070957600080fd5b50610724600480360381019061071f9190612d76565b611592565b6040516107319190612d1e565b60405180910390f35b34801561074657600080fd5b50610761600480360381019061075c91906133d6565b6116d9565b60405161076e9190612c7b565b60405180910390f35b34801561078357600080fd5b5061079e600480360381019061079991906130a5565b61176d565b005b3480156107ac57600080fd5b506107b5611864565b6040516107c29190612d1e565b60405180910390f35b60007f780e9d63000000000000000000000000000000000000000000000000000000007bffffffffffffffffffffffffffffffffffffffffffffffffffffffff1916827bffffffffffffffffffffffffffffffffffffffffffffffffffffffff1916148061083e575061083d826118cb565b5b9050919050565b60606000805461085490613445565b80601f016020809104026020016040519081016040528092919081815260200182805461088090613445565b80156108cd5780601f106108a2576101008083540402835291602001916108cd565b820191906000526020600020905b8154815290600101906020018083116108b057829003601f168201915b5050505050905090565b60006108e2826119ad565b610921576040517f08c379a0000000000000000000000000000000000000000000000000000000008152600401610918906134e8565b60405180910390fd5b6004600083815260200190815260200160002060009054906101000a900473ffffffffffffffffffffffffffffffffffffffff169050919050565b60606000610968611a19565b90508061097d610978600c611aab565b611ab9565b600e604051602001610991939291906135d8565b60405160208183030381529060405291505090565b60006109b1826110a8565b90508073ffffffffffffffffffffffffffffffffffffffff168373ffffffffffffffffffffffffffffffffffffffff1603610a21576040517f08c379a0000000000000000000000000000000000000000000000000000000008152600401610a189061367b565b60405180910390fd5b8073ffffffffffffffffffffffffffffffffffffffff16610a40611c19565b73ffffffffffffffffffffffffffffffffffffffff161480610a6f5750610a6e81610a69611c19565b6116d9565b5b610aae576040517f08c379a0000000000000000000000000000000000000000000000000000000008152600401610aa59061370d565b60405180910390fd5b610ab88383611c21565b505050565b60128054610aca90613445565b80601f0160208091040260200160405190810160405280929190818152602001828054610af690613445565b8015610b435780601f10610b1857610100808354040283529160200191610b43565b820191906000526020600020905b815481529060010190602001808311610b2657829003601f168201915b505050505081565b600073ffffffffffffffffffffffffffffffffffffffff16610b6b611c19565b73ffffffffffffffffffffffffffffffffffffffff1603610bc1576040517f08c379a0000000000000000000000000000000000000000000000000000000008152600401610bb890613779565b60405180910390fd5b600f543414610c05576040517f08c379a0000000000000000000000000000000000000000000000000000000008152600401610bfc9061380b565b60405180910390fd5b601054610c12600c611aab565b1115610c53576040517f08c379a0000000000000000000000000000000000000000000000000000000008152600401610c4a90613877565b60405180910390fd5b610c5d600c611cda565b610c77610c68611c19565b610c72600c611aab565b611cf0565b600b60009054906101000a900473ffffffffffffffffffffffffffffffffffffffff1673ffffffffffffffffffffffffffffffffffffffff166108fc349081150290604051600060405180830381858888f19350505050158015610cdf573d6000803e3d6000fd5b50565b6000600880549050905090565b610d00610cfa611c19565b82611d0e565b610d3f576040517f08c379a0000000000000000000000000000000000000000000000000000000008152600401610d3690613909565b60405180910390fd5b610d4a838383611dec565b505050565b60606000610d5c85611159565b03610db757600067ffffffffffffffff811115610d7c57610d7b613228565b5b604051908082528060200260200182016040528015610daf57816020015b6060815260200190600190039081610d9a5790505b509050610ebf565b6000838311610dc65782610dc8565b835b905060008167ffffffffffffffff811115610de657610de5613228565b5b604051908082528060200260200182016040528015610e1957816020015b6060815260200190600190039081610e045790505b509050600080610e27611a19565b905060005b84811015610eb657610e4a89600189610e459190613958565b610f4c565b925081610e5684611ab9565b600e604051602001610e6a939291906135d8565b604051602081830303815290604052848281518110610e8c57610e8b61398c565b5b602002602001018190525086610ea1906139bb565b96508080610eae906139e4565b915050610e2c565b50829450505050505b9392505050565b610ece611c19565b73ffffffffffffffffffffffffffffffffffffffff16610eec611346565b73ffffffffffffffffffffffffffffffffffffffff1614610f42576040517f08c379a0000000000000000000000000000000000000000000000000000000008152600401610f3990613a78565b60405180910390fd5b8060108190555050565b6000610f5783611159565b8210610f98576040517f08c379a0000000000000000000000000000000000000000000000000000000008152600401610f8f90613b0a565b60405180910390fd5b600660008473ffffffffffffffffffffffffffffffffffffffff1673ffffffffffffffffffffffffffffffffffffffff168152602001908152602001600020600083815260200190815260200160002054905092915050565b61100c83838360405180602001604052806000815250611530565b505050565b600061101b610ce2565b821061105c576040517f08c379a000000000000000000000000000000000000000000000000000000000815260040161105390613b9c565b60405180910390fd5b600882815481106110705761106f61398c565b5b90600052602060002001549050919050565b600b60009054906101000a900473ffffffffffffffffffffffffffffffffffffffff1681565b6000806002600084815260200190815260200160002060009054906101000a900473ffffffffffffffffffffffffffffffffffffffff169050600073ffffffffffffffffffffffffffffffffffffffff168173ffffffffffffffffffffffffffffffffffffffff1603611150576040517f08c379a000000000000000000000000000000000000000000000000000000000815260040161114790613c2e565b60405180910390fd5b80915050919050565b60008073ffffffffffffffffffffffffffffffffffffffff168273ffffffffffffffffffffffffffffffffffffffff16036111c9576040517f08c379a00000000000000000000000000000000000000000000000000000000081526004016111c090613cc0565b60405180910390fd5b600360008373ffffffffffffffffffffffffffffffffffffffff1673ffffffffffffffffffffffffffffffffffffffff168152602001908152602001600020549050919050565b611218611c19565b73ffffffffffffffffffffffffffffffffffffffff16611236611346565b73ffffffffffffffffffffffffffffffffffffffff161461128c576040517f08c379a000000000000000000000000000000000000000000000000000000000815260040161128390613a78565b60405180910390fd5b6112966000612052565b565b606060006112a583611159565b905060008167ffffffffffffffff8111156112c3576112c2613228565b5b6040519080825280602002602001820160405280156112f15781602001602082028036833780820191505090505b50905060005b8281101561133b576113098582610f4c565b82828151811061131c5761131b61398c565b5b6020026020010181815250508080611333906139e4565b9150506112f7565b508092505050919050565b6000600a60009054906101000a900473ffffffffffffffffffffffffffffffffffffffff16905090565b611378611c19565b73ffffffffffffffffffffffffffffffffffffffff16611396611346565b73ffffffffffffffffffffffffffffffffffffffff16146113ec576040517f08c379a00000000000000000000000000000000000000000000000000000000081526004016113e390613a78565b60405180910390fd5b8060118190555050565b6113fe611c19565b73ffffffffffffffffffffffffffffffffffffffff1661141c611346565b73ffffffffffffffffffffffffffffffffffffffff1614611472576040517f08c379a000000000000000000000000000000000000000000000000000000000815260040161146990613a78565b60405180910390fd5b80600f8190555050565b60606001805461148b90613445565b80601f01602080910402602001604051908101604052809291908181526020018280546114b790613445565b80156115045780601f106114d957610100808354040283529160200191611504565b820191906000526020600020905b8154815290600101906020018083116114e757829003601f168201915b5050505050905090565b600f5481565b61152661151f611c19565b8383612118565b5050565b60105481565b61154161153b611c19565b83611d0e565b611580576040517f08c379a000000000000000000000000000000000000000000000000000000000815260040161157790613909565b60405180910390fd5b61158c84848484612284565b50505050565b606061159d826119ad565b6115dc576040517f08c379a00000000000000000000000000000000000000000000000000000000081526004016115d390613d52565b60405180910390fd5b426011541061167757601280546115f290613445565b80601f016020809104026020016040519081016040528092919081815260200182805461161e90613445565b801561166b5780601f106116405761010080835404028352916020019161166b565b820191906000526020600020905b81548152906001019060200180831161164e57829003601f168201915b505050505090506116d4565b6000600d805461168690613445565b9050116116a257604051806020016040528060008152506116d1565b600d6116ad83611ab9565b600e6040516020016116c193929190613d72565b6040516020818303038152906040525b90505b919050565b6000600560008473ffffffffffffffffffffffffffffffffffffffff1673ffffffffffffffffffffffffffffffffffffffff16815260200190815260200160002060008373ffffffffffffffffffffffffffffffffffffffff1673ffffffffffffffffffffffffffffffffffffffff16815260200190815260200160002060009054906101000a900460ff16905092915050565b611775611c19565b73ffffffffffffffffffffffffffffffffffffffff16611793611346565b73ffffffffffffffffffffffffffffffffffffffff16146117e9576040517f08c379a00000000000000000000000000000000000000000000000000000000081526004016117e090613a78565b60405180910390fd5b600073ffffffffffffffffffffffffffffffffffffffff168173ffffffffffffffffffffffffffffffffffffffff1603611858576040517f08c379a000000000000000000000000000000000000000000000000000000000815260040161184f90613e15565b60405180910390fd5b61186181612052565b50565b606042601154106118ac576040518060400160405280602081526020017f4974206973206e6f74207468652074696d6520746f20726576656c204e46545381525090506118c8565b6040518060600160405280603b81526020016143bb603b913990505b90565b60007f80ac58cd000000000000000000000000000000000000000000000000000000007bffffffffffffffffffffffffffffffffffffffffffffffffffffffff1916827bffffffffffffffffffffffffffffffffffffffffffffffffffffffff1916148061199657507f5b5e139f000000000000000000000000000000000000000000000000000000007bffffffffffffffffffffffffffffffffffffffffffffffffffffffff1916827bffffffffffffffffffffffffffffffffffffffffffffffffffffffff1916145b806119a657506119a5826122e0565b5b9050919050565b60008073ffffffffffffffffffffffffffffffffffffffff166002600084815260200190815260200160002060009054906101000a900473ffffffffffffffffffffffffffffffffffffffff1673ffffffffffffffffffffffffffffffffffffffff1614159050919050565b6060600d8054611a2890613445565b80601f0160208091040260200160405190810160405280929190818152602001828054611a5490613445565b8015611aa15780601f10611a7657610100808354040283529160200191611aa1565b820191906000526020600020905b815481529060010190602001808311611a8457829003601f168201915b5050505050905090565b600081600001549050919050565b606060008203611b00576040518060400160405280600181526020017f30000000000000000000000000000000000000000000000000000000000000008152509050611c14565b600082905060005b60008214611b32578080611b1b906139e4565b915050600a82611b2b9190613e64565b9150611b08565b60008167ffffffffffffffff811115611b4e57611b4d613228565b5b6040519080825280601f01601f191660200182016040528015611b805781602001600182028036833780820191505090505b5090505b60008514611c0d57600182611b999190613958565b9150600a85611ba89190613e95565b6030611bb49190613ec6565b60f81b818381518110611bca57611bc961398c565b5b60200101907effffffffffffffffffffffffffffffffffffffffffffffffffffffffffffff1916908160001a905350600a85611c069190613e64565b9450611b84565b8093505050505b919050565b600033905090565b816004600083815260200190815260200160002060006101000a81548173ffffffffffffffffffffffffffffffffffffffff021916908373ffffffffffffffffffffffffffffffffffffffff160217905550808273ffffffffffffffffffffffffffffffffffffffff16611c94836110a8565b73ffffffffffffffffffffffffffffffffffffffff167f8c5be1e5ebec7d5bd14f71427d1e84f3dd0314c0f7b2291e5b200ac8c7c3b92560405160405180910390a45050565b6001816000016000828254019250508190555050565b611d0a82826040518060200160405280600081525061234a565b5050565b6000611d19826119ad565b611d58576040517f08c379a0000000000000000000000000000000000000000000000000000000008152600401611d4f90613f8e565b60405180910390fd5b6000611d63836110a8565b90508073ffffffffffffffffffffffffffffffffffffffff168473ffffffffffffffffffffffffffffffffffffffff161480611dd257508373ffffffffffffffffffffffffffffffffffffffff16611dba846108d7565b73ffffffffffffffffffffffffffffffffffffffff16145b80611de35750611de281856116d9565b5b91505092915050565b8273ffffffffffffffffffffffffffffffffffffffff16611e0c826110a8565b73ffffffffffffffffffffffffffffffffffffffff1614611e62576040517f08c379a0000000000000000000000000000000000000000000000000000000008152600401611e5990614020565b60405180910390fd5b600073ffffffffffffffffffffffffffffffffffffffff168273ffffffffffffffffffffffffffffffffffffffff1603611ed1576040517f08c379a0000000000000000000000000000000000000000000000000000000008152600401611ec8906140b2565b60405180910390fd5b611edc8383836123a5565b611ee7600082611c21565b6001600360008573ffffffffffffffffffffffffffffffffffffffff1673ffffffffffffffffffffffffffffffffffffffff1681526020019081526020016000206000828254611f379190613958565b925050819055506001600360008473ffffffffffffffffffffffffffffffffffffffff1673ffffffffffffffffffffffffffffffffffffffff1681526020019081526020016000206000828254611f8e9190613ec6565b92505081905550816002600083815260200190815260200160002060006101000a81548173ffffffffffffffffffffffffffffffffffffffff021916908373ffffffffffffffffffffffffffffffffffffffff160217905550808273ffffffffffffffffffffffffffffffffffffffff168473ffffffffffffffffffffffffffffffffffffffff167fddf252ad1be2c89b69c2b068fc378daa952ba7f163c4a11628f55a4df523b3ef60405160405180910390a461204d8383836124b7565b505050565b6000600a60009054906101000a900473ffffffffffffffffffffffffffffffffffffffff16905081600a60006101000a81548173ffffffffffffffffffffffffffffffffffffffff021916908373ffffffffffffffffffffffffffffffffffffffff1602179055508173ffffffffffffffffffffffffffffffffffffffff168173ffffffffffffffffffffffffffffffffffffffff167f8be0079c531659141344cd1fd0a4f28419497f9722a3daafe3b4186f6b6457e060405160405180910390a35050565b8173ffffffffffffffffffffffffffffffffffffffff168373ffffffffffffffffffffffffffffffffffffffff1603612186576040517f08c379a000000000000000000000000000000000000000000000000000000000815260040161217d9061411e565b60405180910390fd5b80600560008573ffffffffffffffffffffffffffffffffffffffff1673ffffffffffffffffffffffffffffffffffffffff16815260200190815260200160002060008473ffffffffffffffffffffffffffffffffffffffff1673ffffffffffffffffffffffffffffffffffffffff16815260200190815260200160002060006101000a81548160ff0219169083151502179055508173ffffffffffffffffffffffffffffffffffffffff168373ffffffffffffffffffffffffffffffffffffffff167f17307eab39ab6107e8899845ad3d59bd9653f200f220920489ca2b5937696c31836040516122779190612c7b565b60405180910390a3505050565b61228f848484611dec565b61229b848484846124bc565b6122da576040517f08c379a00000000000000000000000000000000000000000000000000000000081526004016122d1906141b0565b60405180910390fd5b50505050565b60007f01ffc9a7000000000000000000000000000000000000000000000000000000007bffffffffffffffffffffffffffffffffffffffffffffffffffffffff1916827bffffffffffffffffffffffffffffffffffffffffffffffffffffffff1916149050919050565b6123548383612643565b61236160008484846124bc565b6123a0576040517f08c379a0000000000000000000000000000000000000000000000000000000008152600401612397906141b0565b60405180910390fd5b505050565b6123b083838361281c565b600073ffffffffffffffffffffffffffffffffffffffff168373ffffffffffffffffffffffffffffffffffffffff16036123f2576123ed81612821565b612431565b8173ffffffffffffffffffffffffffffffffffffffff168373ffffffffffffffffffffffffffffffffffffffff16146124305761242f838261286a565b5b5b600073ffffffffffffffffffffffffffffffffffffffff168273ffffffffffffffffffffffffffffffffffffffff16036124735761246e816129d7565b6124b2565b8273ffffffffffffffffffffffffffffffffffffffff168273ffffffffffffffffffffffffffffffffffffffff16146124b1576124b08282612aa8565b5b5b505050565b505050565b60006124dd8473ffffffffffffffffffffffffffffffffffffffff16612b27565b15612636578373ffffffffffffffffffffffffffffffffffffffff1663150b7a02612506611c19565b8786866040518563ffffffff1660e01b81526004016125289493929190614225565b6020604051808303816000875af192505050801561256457506040513d601f19601f820116820180604052508101906125619190614286565b60015b6125e6573d8060008114612594576040519150601f19603f3d011682016040523d82523d6000602084013e612599565b606091505b5060008151036125de576040517f08c379a00000000000000000000000000000000000000000000000000000000081526004016125d5906141b0565b60405180910390fd5b805181602001fd5b63150b7a0260e01b7bffffffffffffffffffffffffffffffffffffffffffffffffffffffff1916817bffffffffffffffffffffffffffffffffffffffffffffffffffffffff19161491505061263b565b600190505b949350505050565b600073ffffffffffffffffffffffffffffffffffffffff168273ffffffffffffffffffffffffffffffffffffffff16036126b2576040517f08c379a00000000000000000000000000000000000000000000000000000000081526004016126a9906142ff565b60405180910390fd5b6126bb816119ad565b156126fb576040517f08c379a00000000000000000000000000000000000000000000000000000000081526004016126f29061436b565b60405180910390fd5b612707600083836123a5565b6001600360008473ffffffffffffffffffffffffffffffffffffffff1673ffffffffffffffffffffffffffffffffffffffff16815260200190815260200160002060008282546127579190613ec6565b92505081905550816002600083815260200190815260200160002060006101000a81548173ffffffffffffffffffffffffffffffffffffffff021916908373ffffffffffffffffffffffffffffffffffffffff160217905550808273ffffffffffffffffffffffffffffffffffffffff16600073ffffffffffffffffffffffffffffffffffffffff167fddf252ad1be2c89b69c2b068fc378daa952ba7f163c4a11628f55a4df523b3ef60405160405180910390a4612818600083836124b7565b5050565b505050565b6008805490506009600083815260200190815260200160002081905550600881908060018154018082558091505060019003906000526020600020016000909190919091505550565b6000600161287784611159565b6128819190613958565b9050600060076000848152602001908152602001600020549050818114612966576000600660008673ffffffffffffffffffffffffffffffffffffffff1673ffffffffffffffffffffffffffffffffffffffff168152602001908152602001600020600084815260200190815260200160002054905080600660008773ffffffffffffffffffffffffffffffffffffffff1673ffffffffffffffffffffffffffffffffffffffff168152602001908152602001600020600084815260200190815260200160002081905550816007600083815260200190815260200160002081905550505b6007600084815260200190815260200160002060009055600660008573ffffffffffffffffffffffffffffffffffffffff1673ffffffffffffffffffffffffffffffffffffffff16815260200190815260200160002060008381526020019081526020016000206000905550505050565b600060016008805490506129eb9190613958565b9050600060096000848152602001908152602001600020549050600060088381548110612a1b57612a1a61398c565b5b906000526020600020015490508060088381548110612a3d57612a3c61398c565b5b906000526020600020018190555081600960008381526020019081526020016000208190555060096000858152602001908152602001600020600090556008805480612a8c57612a8b61438b565b5b6001900381819060005260206000200160009055905550505050565b6000612ab383611159565b905081600660008573ffffffffffffffffffffffffffffffffffffffff1673ffffffffffffffffffffffffffffffffffffffff168152602001908152602001600020600083815260200190815260200160002081905550806007600084815260200190815260200160002081905550505050565b6000808273ffffffffffffffffffffffffffffffffffffffff163b119050919050565b600082825260208201905092915050565b7f446f206e6f742073656e6420457468657220746f206d65210000000000000000600082015250565b6000612b91601883612b4a565b9150612b9c82612b5b565b602082019050919050565b60006020820190508181036000830152612bc081612b84565b9050919050565b6000604051905090565b600080fd5b600080fd5b60007fffffffff0000000000000000000000000000000000000000000000000000000082169050919050565b612c1081612bdb565b8114612c1b57600080fd5b50565b600081359050612c2d81612c07565b92915050565b600060208284031215612c4957612c48612bd1565b5b6000612c5784828501612c1e565b91505092915050565b60008115159050919050565b612c7581612c60565b82525050565b6000602082019050612c906000830184612c6c565b92915050565b600081519050919050565b60005b83811015612cbf578082015181840152602081019050612ca4565b83811115612cce576000848401525b50505050565b6000601f19601f8301169050919050565b6000612cf082612c96565b612cfa8185612b4a565b9350612d0a818560208601612ca1565b612d1381612cd4565b840191505092915050565b60006020820190508181036000830152612d388184612ce5565b905092915050565b6000819050919050565b612d5381612d40565b8114612d5e57600080fd5b50565b600081359050612d7081612d4a565b92915050565b600060208284031215612d8c57612d8b612bd1565b5b6000612d9a84828501612d61565b91505092915050565b600073ffffffffffffffffffffffffffffffffffffffff82169050919050565b6000612dce82612da3565b9050919050565b612dde81612dc3565b82525050565b6000602082019050612df96000830184612dd5565b92915050565b612e0881612dc3565b8114612e1357600080fd5b50565b600081359050612e2581612dff565b92915050565b60008060408385031215612e4257612e41612bd1565b5b6000612e5085828601612e16565b9250506020612e6185828601612d61565b9150509250929050565b612e7481612d40565b82525050565b6000602082019050612e8f6000830184612e6b565b92915050565b600080600060608486031215612eae57612ead612bd1565b5b6000612ebc86828701612e16565b9350506020612ecd86828701612e16565b9250506040612ede86828701612d61565b9150509250925092565b600080600060608486031215612f0157612f00612bd1565b5b6000612f0f86828701612e16565b9350506020612f2086828701612d61565b9250506040612f3186828701612d61565b9150509250925092565b600081519050919050565b600082825260208201905092915050565b6000819050602082019050919050565b600082825260208201905092915050565b6000612f8382612c96565b612f8d8185612f67565b9350612f9d818560208601612ca1565b612fa681612cd4565b840191505092915050565b6000612fbd8383612f78565b905092915050565b6000602082019050919050565b6000612fdd82612f3b565b612fe78185612f46565b935083602082028501612ff985612f57565b8060005b8581101561303557848403895281516130168582612fb1565b945061302183612fc5565b925060208a01995050600181019050612ffd565b50829750879550505050505092915050565b600060208201905081810360008301526130618184612fd2565b905092915050565b600061307482612da3565b9050919050565b61308481613069565b82525050565b600060208201905061309f600083018461307b565b92915050565b6000602082840312156130bb576130ba612bd1565b5b60006130c984828501612e16565b91505092915050565b600081519050919050565b600082825260208201905092915050565b6000819050602082019050919050565b61310781612d40565b82525050565b600061311983836130fe565b60208301905092915050565b6000602082019050919050565b600061313d826130d2565b61314781856130dd565b9350613152836130ee565b8060005b8381101561318357815161316a888261310d565b975061317583613125565b925050600181019050613156565b5085935050505092915050565b600060208201905081810360008301526131aa8184613132565b905092915050565b6131bb81612c60565b81146131c657600080fd5b50565b6000813590506131d8816131b2565b92915050565b600080604083850312156131f5576131f4612bd1565b5b600061320385828601612e16565b9250506020613214858286016131c9565b9150509250929050565b600080fd5b600080fd5b7f4e487b7100000000000000000000000000000000000000000000000000000000600052604160045260246000fd5b61326082612cd4565b810181811067ffffffffffffffff8211171561327f5761327e613228565b5b80604052505050565b6000613292612bc7565b905061329e8282613257565b919050565b600067ffffffffffffffff8211156132be576132bd613228565b5b6132c782612cd4565b9050602081019050919050565b82818337600083830152505050565b60006132f66132f1846132a3565b613288565b90508281526020810184848401111561331257613311613223565b5b61331d8482856132d4565b509392505050565b600082601f83011261333a5761333961321e565b5b813561334a8482602086016132e3565b91505092915050565b6000806000806080858703121561336d5761336c612bd1565b5b600061337b87828801612e16565b945050602061338c87828801612e16565b935050604061339d87828801612d61565b925050606085013567ffffffffffffffff8111156133be576133bd612bd6565b5b6133ca87828801613325565b91505092959194509250565b600080604083850312156133ed576133ec612bd1565b5b60006133fb85828601612e16565b925050602061340c85828601612e16565b9150509250929050565b7f4e487b7100000000000000000000000000000000000000000000000000000000600052602260045260246000fd5b6000600282049050600182168061345d57607f821691505b6020821081036134705761346f613416565b5b50919050565b7f4552433732313a20617070726f76656420717565727920666f72206e6f6e657860008201527f697374656e7420746f6b656e0000000000000000000000000000000000000000602082015250565b60006134d2602c83612b4a565b91506134dd82613476565b604082019050919050565b60006020820190508181036000830152613501816134c5565b9050919050565b600081905092915050565b600061351e82612c96565b6135288185613508565b9350613538818560208601612ca1565b80840191505092915050565b60008190508160005260206000209050919050565b6000815461356681613445565b6135708186613508565b9450600182166000811461358b576001811461359c576135cf565b60ff198316865281860193506135cf565b6135a585613544565b60005b838110156135c7578154818901526001820191506020810190506135a8565b838801955050505b50505092915050565b60006135e48286613513565b91506135f08285613513565b91506135fc8284613559565b9150819050949350505050565b7f4552433732313a20617070726f76616c20746f2063757272656e74206f776e6560008201527f7200000000000000000000000000000000000000000000000000000000000000602082015250565b6000613665602183612b4a565b915061367082613609565b604082019050919050565b6000602082019050818103600083015261369481613658565b9050919050565b7f4552433732313a20617070726f76652063616c6c6572206973206e6f74206f7760008201527f6e6572206e6f7220617070726f76656420666f7220616c6c0000000000000000602082015250565b60006136f7603883612b4a565b91506137028261369b565b604082019050919050565b60006020820190508181036000830152613726816136ea565b9050919050565b7f427579657227732061646472657373206d757374206e6f742062652030000000600082015250565b6000613763601d83612b4a565b915061376e8261372d565b602082019050919050565b6000602082019050818103600083015261379281613756565b9050919050565b7f302e303031206574686572206d757374206265207061696420746f206d696e7460008201527f2061204e46540000000000000000000000000000000000000000000000000000602082015250565b60006137f5602683612b4a565b915061380082613799565b604082019050919050565b60006020820190508181036000830152613824816137e8565b9050919050565b7f416c6c20746865204e4654732061726520616c7265616479206d696e74656400600082015250565b6000613861601f83612b4a565b915061386c8261382b565b602082019050919050565b6000602082019050818103600083015261389081613854565b9050919050565b7f4552433732313a207472616e736665722063616c6c6572206973206e6f74206f60008201527f776e6572206e6f7220617070726f766564000000000000000000000000000000602082015250565b60006138f3603183612b4a565b91506138fe82613897565b604082019050919050565b60006020820190508181036000830152613922816138e6565b9050919050565b7f4e487b7100000000000000000000000000000000000000000000000000000000600052601160045260246000fd5b600061396382612d40565b915061396e83612d40565b92508282101561398157613980613929565b5b828203905092915050565b7f4e487b7100000000000000000000000000000000000000000000000000000000600052603260045260246000fd5b60006139c682612d40565b9150600082036139d9576139d8613929565b5b600182039050919050565b60006139ef82612d40565b91507fffffffffffffffffffffffffffffffffffffffffffffffffffffffffffffffff8203613a2157613a20613929565b5b600182019050919050565b7f4f776e61626c653a2063616c6c6572206973206e6f7420746865206f776e6572600082015250565b6000613a62602083612b4a565b9150613a6d82613a2c565b602082019050919050565b60006020820190508181036000830152613a9181613a55565b9050919050565b7f455243373231456e756d657261626c653a206f776e657220696e646578206f7560008201527f74206f6620626f756e6473000000000000000000000000000000000000000000602082015250565b6000613af4602b83612b4a565b9150613aff82613a98565b604082019050919050565b60006020820190508181036000830152613b2381613ae7565b9050919050565b7f455243373231456e756d657261626c653a20676c6f62616c20696e646578206f60008201527f7574206f6620626f756e64730000000000000000000000000000000000000000602082015250565b6000613b86602c83612b4a565b9150613b9182613b2a565b604082019050919050565b60006020820190508181036000830152613bb581613b79565b9050919050565b7f4552433732313a206f776e657220717565727920666f72206e6f6e657869737460008201527f656e7420746f6b656e0000000000000000000000000000000000000000000000602082015250565b6000613c18602983612b4a565b9150613c2382613bbc565b604082019050919050565b60006020820190508181036000830152613c4781613c0b565b9050919050565b7f4552433732313a2062616c616e636520717565727920666f7220746865207a6560008201527f726f206164647265737300000000000000000000000000000000000000000000602082015250565b6000613caa602a83612b4a565b9150613cb582613c4e565b604082019050919050565b60006020820190508181036000830152613cd981613c9d565b9050919050565b7f4552433732314d657461646174613a2055524920717565727920666f72206e6f60008201527f6e6578697374656e7420746f6b656e0000000000000000000000000000000000602082015250565b6000613d3c602f83612b4a565b9150613d4782613ce0565b604082019050919050565b60006020820190508181036000830152613d6b81613d2f565b9050919050565b6000613d7e8286613559565b9150613d8a8285613513565b9150613d968284613559565b9150819050949350505050565b7f4f776e61626c653a206e6577206f776e657220697320746865207a65726f206160008201527f6464726573730000000000000000000000000000000000000000000000000000602082015250565b6000613dff602683612b4a565b9150613e0a82613da3565b604082019050919050565b60006020820190508181036000830152613e2e81613df2565b9050919050565b7f4e487b7100000000000000000000000000000000000000000000000000000000600052601260045260246000fd5b6000613e6f82612d40565b9150613e7a83612d40565b925082613e8a57613e89613e35565b5b828204905092915050565b6000613ea082612d40565b9150613eab83612d40565b925082613ebb57613eba613e35565b5b828206905092915050565b6000613ed182612d40565b9150613edc83612d40565b9250827fffffffffffffffffffffffffffffffffffffffffffffffffffffffffffffffff03821115613f1157613f10613929565b5b828201905092915050565b7f4552433732313a206f70657261746f7220717565727920666f72206e6f6e657860008201527f697374656e7420746f6b656e0000000000000000000000000000000000000000602082015250565b6000613f78602c83612b4a565b9150613f8382613f1c565b604082019050919050565b60006020820190508181036000830152613fa781613f6b565b9050919050565b7f4552433732313a207472616e736665722066726f6d20696e636f72726563742060008201527f6f776e6572000000000000000000000000000000000000000000000000000000602082015250565b600061400a602583612b4a565b915061401582613fae565b604082019050919050565b6000602082019050818103600083015261403981613ffd565b9050919050565b7f4552433732313a207472616e7366657220746f20746865207a65726f2061646460008201527f7265737300000000000000000000000000000000000000000000000000000000602082015250565b600061409c602483612b4a565b91506140a782614040565b604082019050919050565b600060208201905081810360008301526140cb8161408f565b9050919050565b7f4552433732313a20617070726f766520746f2063616c6c657200000000000000600082015250565b6000614108601983612b4a565b9150614113826140d2565b602082019050919050565b60006020820190508181036000830152614137816140fb565b9050919050565b7f4552433732313a207472616e7366657220746f206e6f6e20455243373231526560008201527f63656976657220696d706c656d656e7465720000000000000000000000000000602082015250565b600061419a603283612b4a565b91506141a58261413e565b604082019050919050565b600060208201905081810360008301526141c98161418d565b9050919050565b600081519050919050565b600082825260208201905092915050565b60006141f7826141d0565b61420181856141db565b9350614211818560208601612ca1565b61421a81612cd4565b840191505092915050565b600060808201905061423a6000830187612dd5565b6142476020830186612dd5565b6142546040830185612e6b565b818103606083015261426681846141ec565b905095945050505050565b60008151905061428081612c07565b92915050565b60006020828403121561429c5761429b612bd1565b5b60006142aa84828501614271565b91505092915050565b7f4552433732313a206d696e7420746f20746865207a65726f2061646472657373600082015250565b60006142e9602083612b4a565b91506142f4826142b3565b602082019050919050565b60006020820190508181036000830152614318816142dc565b9050919050565b7f4552433732313a20746f6b656e20616c7265616479206d696e74656400000000600082015250565b6000614355601c83612b4a565b91506143608261431f565b602082019050919050565b6000602082019050818103600083015261438481614348565b9050919050565b7f4e487b7100000000000000000000000000000000000000000000000000000000600052603160045260246000fdfe626166796265696661737062797a746a6975336b763668356f6c3364346661746c626363326f6e613568376a7135736d746669666f777078736c61a2646970667358221220c3a3cee7d660cc889b8cababbdaec9687ccfd1dc6f03235d8ecda731e784f7fa64736f6c634300080d003368747470733a2f2f6261666b72656968656c36643579786e626b656f686c6c726e37626a63626a7172787037766d377375666167687a353574756d6d7a7172613770712e697066732e6e667473746f726167652e6c696e6b2f",
  "immutableReferences": {},
  "source": "// SPDX-License-Identifier: GPL-3.0\r\n\r\npragma solidity >=0.7.0 <0.9.0;\r\n\r\nimport \"@openzeppelin/contracts/token/ERC721/extensions/ERC721Enumerable.sol\";\r\nimport \"@openzeppelin/contracts/utils/Counters.sol\";\r\nimport \"@openzeppelin/contracts/access/Ownable.sol\";\r\n\r\ncontract MotherNature is ERC721Enumerable, Ownable {\r\n    using Counters for Counters.Counter;\r\n    using Strings for uint256;\r\n\r\n    address payable public wallet;\r\n\r\n    Counters.Counter private _tokenId;\r\n    string private constant NFT_CID =\r\n        \"bafybeifaspbyztjiu3kv6h5ol3d4fatlbcc2ona5h7jq5smtfifowpxsla\";\r\n    string private baseURI;\r\n\r\n    string private baseExtension = \".json\";\r\n\r\n    uint256 public price = 0.001 ether;\r\n    uint256 public limit = 100;\r\n\r\n    uint256 private timeToRevel;\r\n    string public dummyURL =\r\n        \"https://bafkreihel6d5yxnbkeohllrn7bjcbjqrxp7vm7sufaghz55tummzqra7pq.ipfs.nftstorage.link/\";\r\n\r\n    constructor(\r\n        string memory _name,\r\n        string memory _symbol,\r\n        address payable _wallet,\r\n        string memory _nftsBaseURI,\r\n        uint256 _timeToRevel\r\n    ) ERC721(_name, _symbol) {\r\n        wallet = _wallet;\r\n        baseURI = _nftsBaseURI;\r\n        timeToRevel = _timeToRevel;\r\n    }\r\n\r\n    receive() external payable {\r\n        require(true, \"Do not send Ether to me!\");\r\n    }\r\n\r\n    function mint() public payable {\r\n        require(_msgSender() != address(0), \"Buyer's address must not be 0\");\r\n        require(msg.value == price, \"0.001 ether must be paid to mint a NFT\");\r\n        require(_tokenId.current() <= limit, \"All the NFTs are already minted\");\r\n        _tokenId.increment(); // Nfts's id starts at 1\r\n        _safeMint(_msgSender(), _tokenId.current());\r\n        wallet.transfer(msg.value);\r\n    }\r\n\r\n    function _baseURI() internal view override returns (string memory) {\r\n        return baseURI;\r\n    }\r\n\r\n    function tokenURI(uint256 tokenId)\r\n        public\r\n        view\r\n        override\r\n        returns (string memory)\r\n    {\r\n        require(\r\n            _exists(tokenId),\r\n            \"ERC721Metadata: URI query for nonexistent token\"\r\n        );\r\n        if (timeToRevel >= block.timestamp) {\r\n            return dummyURL;\r\n        }\r\n\r\n        return\r\n            bytes(baseURI).length > 0\r\n                ? string(\r\n                    abi.encodePacked(baseURI, tokenId.toString(), baseExtension)\r\n                )\r\n                : \"\";\r\n    }\r\n\r\n    function setPrice(uint256 _price) public onlyOwner {\r\n        price = _price;\r\n    }\r\n\r\n    function setLimit(uint256 _limit) public onlyOwner {\r\n        limit = _limit;\r\n    }\r\n\r\n    function setTimeToRevel(uint256 _timeToRevel) public onlyOwner {\r\n        timeToRevel = _timeToRevel;\r\n    }\r\n\r\n    function getNFTCID() public view returns (string memory) {\r\n        if (timeToRevel >= block.timestamp) {\r\n            return \"It is not the time to revel NFTS\";\r\n        }\r\n        return NFT_CID;\r\n    }\r\n\r\n    function OwnersNfts(address _owner) public view returns (uint256[] memory) {\r\n        uint256 ownerTotalNFTs = balanceOf(_owner);\r\n        uint256[] memory ownedNFTlist = new uint256[](ownerTotalNFTs);\r\n        for (uint256 i; i < ownerTotalNFTs; i++) {\r\n            ownedNFTlist[i] = (tokenOfOwnerByIndex(_owner, i));\r\n        }\r\n        return ownedNFTlist;\r\n    }\r\n\r\n    function getOwnersNftsURIs(\r\n        address _owner,\r\n        uint256 _limit,\r\n        uint256 _offset\r\n    ) public view returns (string[] memory) {\r\n        if (balanceOf(_owner) == 0) {\r\n            return new string[](0);\r\n        }\r\n        uint256 size = _offset > _limit ? _limit : _offset;\r\n        string[] memory ownedNFTsURIsList = new string[](size);\r\n        uint256 ownedNFTId;\r\n\r\n        string memory currentBaseURI = _baseURI();\r\n        for (uint256 i = 0; i < size; i++) {\r\n            ownedNFTId = (tokenOfOwnerByIndex(_owner, _offset - 1));\r\n            ownedNFTsURIsList[i] = string(\r\n                abi.encodePacked(\r\n                    currentBaseURI,\r\n                    ownedNFTId.toString(),\r\n                    baseExtension\r\n                )\r\n            );\r\n            --_offset;\r\n        }\r\n\r\n        return ownedNFTsURIsList;\r\n    }\r\n\r\n    function getLatestURI() public view returns (string memory) {\r\n        string memory currentBaseURI = _baseURI();\r\n        return\r\n            string(\r\n                abi.encodePacked(\r\n                    currentBaseURI,\r\n                    _tokenId.current().toString(),\r\n                    baseExtension\r\n                )\r\n            );\r\n    }\r\n}\r\n",
  "sourcePath": "H:\\Portfolio\\truffle\\contracts\\MotherNature_ERC721\\MotherNature.sol",
  "compiler": {
    "name": "solc",
    "version": "0.8.13+commit.abaa5c0e.Emscripten.clang"
  },
  "schemaVersion": "3.4.7",
  "updatedAt": "2022-07-02T16:26:13.911Z",
  "networkType": "ethereum",
  "devdoc": {
    "kind": "dev",
    "methods": {
      "approve(address,uint256)": {
        "details": "See {IERC721-approve}."
      },
      "balanceOf(address)": {
        "details": "See {IERC721-balanceOf}."
      },
      "getApproved(uint256)": {
        "details": "See {IERC721-getApproved}."
      },
      "isApprovedForAll(address,address)": {
        "details": "See {IERC721-isApprovedForAll}."
      },
      "name()": {
        "details": "See {IERC721Metadata-name}."
      },
      "owner()": {
        "details": "Returns the address of the current owner."
      },
      "ownerOf(uint256)": {
        "details": "See {IERC721-ownerOf}."
      },
      "renounceOwnership()": {
        "details": "Leaves the contract without owner. It will not be possible to call `onlyOwner` functions anymore. Can only be called by the current owner. NOTE: Renouncing ownership will leave the contract without an owner, thereby removing any functionality that is only available to the owner."
      },
      "safeTransferFrom(address,address,uint256)": {
        "details": "See {IERC721-safeTransferFrom}."
      },
      "safeTransferFrom(address,address,uint256,bytes)": {
        "details": "See {IERC721-safeTransferFrom}."
      },
      "setApprovalForAll(address,bool)": {
        "details": "See {IERC721-setApprovalForAll}."
      },
      "supportsInterface(bytes4)": {
        "details": "See {IERC165-supportsInterface}."
      },
      "symbol()": {
        "details": "See {IERC721Metadata-symbol}."
      },
      "tokenByIndex(uint256)": {
        "details": "See {IERC721Enumerable-tokenByIndex}."
      },
      "tokenOfOwnerByIndex(address,uint256)": {
        "details": "See {IERC721Enumerable-tokenOfOwnerByIndex}."
      },
      "tokenURI(uint256)": {
        "details": "See {IERC721Metadata-tokenURI}."
      },
      "totalSupply()": {
        "details": "See {IERC721Enumerable-totalSupply}."
      },
      "transferFrom(address,address,uint256)": {
        "details": "See {IERC721-transferFrom}."
      },
      "transferOwnership(address)": {
        "details": "Transfers ownership of the contract to a new account (`newOwner`). Can only be called by the current owner."
      }
    },
    "version": 1
  },
  "userdoc": {
    "kind": "user",
    "methods": {},
    "version": 1
  }
}