{
  "contractName": "UserCollection",
  "abi": [
    {
      "inputs": [
        {
          "internalType": "address",
          "name": "",
          "type": "address"
        },
        {
          "internalType": "uint256",
          "name": "",
          "type": "uint256"
        }
      ],
      "name": "collectionInfoByUser",
      "outputs": [
        {
          "internalType": "address",
          "name": "Nft",
          "type": "address"
        },
        {
          "internalType": "address",
          "name": "creator",
          "type": "address"
        },
        {
          "internalType": "string",
          "name": "collectionURI",
          "type": "string"
        },
        {
          "internalType": "string",
          "name": "name",
          "type": "string"
        },
        {
          "internalType": "string",
          "name": "symbol",
          "type": "string"
        }
      ],
      "stateMutability": "view",
      "type": "function",
      "constant": true
    },
    {
      "inputs": [
        {
          "internalType": "address",
          "name": "",
          "type": "address"
        }
      ],
      "name": "isTheNFTInit",
      "outputs": [
        {
          "internalType": "bool",
          "name": "",
          "type": "bool"
        }
      ],
      "stateMutability": "view",
      "type": "function",
      "constant": true
    },
    {
      "inputs": [
        {
          "internalType": "address",
          "name": "_Nft",
          "type": "address"
        },
        {
          "internalType": "address",
          "name": "_creator",
          "type": "address"
        },
        {
          "internalType": "string",
          "name": "collectionURI",
          "type": "string"
        },
        {
          "internalType": "string",
          "name": "_name",
          "type": "string"
        },
        {
          "internalType": "string",
          "name": "_symbol",
          "type": "string"
        }
      ],
      "name": "createCollection",
      "outputs": [],
      "stateMutability": "nonpayable",
      "type": "function"
    },
    {
      "inputs": [
        {
          "internalType": "address",
          "name": "_owner",
          "type": "address"
        },
        {
          "internalType": "uint256",
          "name": "_limit",
          "type": "uint256"
        },
        {
          "internalType": "uint256",
          "name": "_offset",
          "type": "uint256"
        }
      ],
      "name": "getUserCollection",
      "outputs": [
        {
          "components": [
            {
              "internalType": "address",
              "name": "Nft",
              "type": "address"
            },
            {
              "internalType": "address",
              "name": "creator",
              "type": "address"
            },
            {
              "internalType": "string",
              "name": "collectionURI",
              "type": "string"
            },
            {
              "internalType": "string",
              "name": "name",
              "type": "string"
            },
            {
              "internalType": "string",
              "name": "symbol",
              "type": "string"
            }
          ],
          "internalType": "struct UserCollection.CollectionInfo[]",
          "name": "",
          "type": "tuple[]"
        }
      ],
      "stateMutability": "view",
      "type": "function",
      "constant": true
    },
    {
      "inputs": [
        {
          "internalType": "address",
          "name": "_user",
          "type": "address"
        }
      ],
      "name": "totalCollectionOf",
      "outputs": [
        {
          "internalType": "uint256",
          "name": "",
          "type": "uint256"
        }
      ],
      "stateMutability": "view",
      "type": "function",
      "constant": true
    },
    {
      "inputs": [
        {
          "internalType": "address",
          "name": "_userNFT",
          "type": "address"
        },
        {
          "internalType": "address",
          "name": "_user",
          "type": "address"
        }
      ],
      "name": "getUserNFTsUris",
      "outputs": [
        {
          "internalType": "string[]",
          "name": "",
          "type": "string[]"
        }
      ],
      "stateMutability": "view",
      "type": "function",
      "constant": true
    }
  ],
  "bytecode": "0x608060405234801561001057600080fd5b5061173b806100206000396000f3fe608060405234801561001057600080fd5b50600436106100625760003560e01c80630e4a48fc146100675780635ea45ace1461008357806364d8f7ee146100b35780639486b49a146100e3578063c870bcc114610113578063eb036bf014610143575b600080fd5b610081600480360381019061007c9190610ddf565b610177565b005b61009d60048036038101906100989190610eae565b6103c1565b6040516100aa9190610ef6565b60405180910390f35b6100cd60048036038101906100c89190610f11565b6103e1565b6040516100da919061109b565b60405180910390f35b6100fd60048036038101906100f89190610eae565b61046a565b60405161010a91906110d6565b60405180910390f35b61012d6004803603810190610128919061111d565b6104b6565b60405161013a91906112c5565b60405180910390f35b61015d600480360381019061015891906112e7565b6108fe565b60405161016e959493929190611380565b60405180910390f35b6000808673ffffffffffffffffffffffffffffffffffffffff1673ffffffffffffffffffffffffffffffffffffffff16815260200190815260200160002060009054906101000a90505060016000808773ffffffffffffffffffffffffffffffffffffffff1673ffffffffffffffffffffffffffffffffffffffff16815260200190815260200160002060006101000a81548160ff021916908315150217905550600160008573ffffffffffffffffffffffffffffffffffffffff1673ffffffffffffffffffffffffffffffffffffffff1681526020019081526020016000206040518060a001604052808773ffffffffffffffffffffffffffffffffffffffff1681526020018673ffffffffffffffffffffffffffffffffffffffff16815260200185815260200184815260200183815250908060018154018082558091505060019003906000526020600020906005020160009091909190915060008201518160000160006101000a81548173ffffffffffffffffffffffffffffffffffffffff021916908373ffffffffffffffffffffffffffffffffffffffff16021790555060208201518160010160006101000a81548173ffffffffffffffffffffffffffffffffffffffff021916908373ffffffffffffffffffffffffffffffffffffffff160217905550604082015181600201908051906020019061037d929190610b29565b50606082015181600301908051906020019061039a929190610b29565b5060808201518160040190805190602001906103b7929190610b29565b5050505050505050565b60006020528060005260406000206000915054906101000a900460ff1681565b60608273ffffffffffffffffffffffffffffffffffffffff1663afa553d3836040518263ffffffff1660e01b815260040161041c91906113e8565b600060405180830381865afa158015610439573d6000803e3d6000fd5b505050506040513d6000823e3d601f19601f820116820180604052508101906104629190611559565b905092915050565b6000600160008373ffffffffffffffffffffffffffffffffffffffff1673ffffffffffffffffffffffffffffffffffffffff168152602001908152602001600020805490509050919050565b60606000600160008673ffffffffffffffffffffffffffffffffffffffff1673ffffffffffffffffffffffffffffffffffffffff1681526020019081526020016000208054905090506000810361056457600067ffffffffffffffff81111561052257610521610cb4565b5b60405190808252806020026020018201604052801561055b57816020015b610548610baf565b8152602001906001900390816105405790505b509150506108f7565b60008484116105735783610575565b845b905060008167ffffffffffffffff81111561059357610592610cb4565b5b6040519080825280602002602001820160405280156105cc57816020015b6105b9610baf565b8152602001906001900390816105b15790505b50905060005b828110156108ef57600160008973ffffffffffffffffffffffffffffffffffffffff1673ffffffffffffffffffffffffffffffffffffffff16815260200190815260200160002060018761062691906115d1565b8154811061063757610636611605565b5b90600052602060002090600502016040518060a00160405290816000820160009054906101000a900473ffffffffffffffffffffffffffffffffffffffff1673ffffffffffffffffffffffffffffffffffffffff1673ffffffffffffffffffffffffffffffffffffffff1681526020016001820160009054906101000a900473ffffffffffffffffffffffffffffffffffffffff1673ffffffffffffffffffffffffffffffffffffffff1673ffffffffffffffffffffffffffffffffffffffff16815260200160028201805461070c90611663565b80601f016020809104026020016040519081016040528092919081815260200182805461073890611663565b80156107855780601f1061075a57610100808354040283529160200191610785565b820191906000526020600020905b81548152906001019060200180831161076857829003601f168201915b5050505050815260200160038201805461079e90611663565b80601f01602080910402602001604051908101604052809291908181526020018280546107ca90611663565b80156108175780601f106107ec57610100808354040283529160200191610817565b820191906000526020600020905b8154815290600101906020018083116107fa57829003601f168201915b5050505050815260200160048201805461083090611663565b80601f016020809104026020016040519081016040528092919081815260200182805461085c90611663565b80156108a95780601f1061087e576101008083540402835291602001916108a9565b820191906000526020600020905b81548152906001019060200180831161088c57829003601f168201915b5050505050815250508282815181106108c5576108c4611605565b5b6020026020010181905250856108da90611694565b955080806108e7906116bd565b9150506105d2565b508093505050505b9392505050565b6001602052816000526040600020818154811061091a57600080fd5b9060005260206000209060050201600091509150508060000160009054906101000a900473ffffffffffffffffffffffffffffffffffffffff16908060010160009054906101000a900473ffffffffffffffffffffffffffffffffffffffff169080600201805461098a90611663565b80601f01602080910402602001604051908101604052809291908181526020018280546109b690611663565b8015610a035780601f106109d857610100808354040283529160200191610a03565b820191906000526020600020905b8154815290600101906020018083116109e657829003601f168201915b505050505090806003018054610a1890611663565b80601f0160208091040260200160405190810160405280929190818152602001828054610a4490611663565b8015610a915780601f10610a6657610100808354040283529160200191610a91565b820191906000526020600020905b815481529060010190602001808311610a7457829003601f168201915b505050505090806004018054610aa690611663565b80601f0160208091040260200160405190810160405280929190818152602001828054610ad290611663565b8015610b1f5780601f10610af457610100808354040283529160200191610b1f565b820191906000526020600020905b815481529060010190602001808311610b0257829003601f168201915b5050505050905085565b828054610b3590611663565b90600052602060002090601f016020900481019282610b575760008555610b9e565b82601f10610b7057805160ff1916838001178555610b9e565b82800160010185558215610b9e579182015b82811115610b9d578251825591602001919060010190610b82565b5b509050610bab9190610c0a565b5090565b6040518060a00160405280600073ffffffffffffffffffffffffffffffffffffffff168152602001600073ffffffffffffffffffffffffffffffffffffffff1681526020016060815260200160608152602001606081525090565b5b80821115610c23576000816000905550600101610c0b565b5090565b6000604051905090565b600080fd5b600080fd5b600073ffffffffffffffffffffffffffffffffffffffff82169050919050565b6000610c6682610c3b565b9050919050565b610c7681610c5b565b8114610c8157600080fd5b50565b600081359050610c9381610c6d565b92915050565b600080fd5b600080fd5b6000601f19601f8301169050919050565b7f4e487b7100000000000000000000000000000000000000000000000000000000600052604160045260246000fd5b610cec82610ca3565b810181811067ffffffffffffffff82111715610d0b57610d0a610cb4565b5b80604052505050565b6000610d1e610c27565b9050610d2a8282610ce3565b919050565b600067ffffffffffffffff821115610d4a57610d49610cb4565b5b610d5382610ca3565b9050602081019050919050565b82818337600083830152505050565b6000610d82610d7d84610d2f565b610d14565b905082815260208101848484011115610d9e57610d9d610c9e565b5b610da9848285610d60565b509392505050565b600082601f830112610dc657610dc5610c99565b5b8135610dd6848260208601610d6f565b91505092915050565b600080600080600060a08688031215610dfb57610dfa610c31565b5b6000610e0988828901610c84565b9550506020610e1a88828901610c84565b945050604086013567ffffffffffffffff811115610e3b57610e3a610c36565b5b610e4788828901610db1565b935050606086013567ffffffffffffffff811115610e6857610e67610c36565b5b610e7488828901610db1565b925050608086013567ffffffffffffffff811115610e9557610e94610c36565b5b610ea188828901610db1565b9150509295509295909350565b600060208284031215610ec457610ec3610c31565b5b6000610ed284828501610c84565b91505092915050565b60008115159050919050565b610ef081610edb565b82525050565b6000602082019050610f0b6000830184610ee7565b92915050565b60008060408385031215610f2857610f27610c31565b5b6000610f3685828601610c84565b9250506020610f4785828601610c84565b9150509250929050565b600081519050919050565b600082825260208201905092915050565b6000819050602082019050919050565b600081519050919050565b600082825260208201905092915050565b60005b83811015610fb7578082015181840152602081019050610f9c565b83811115610fc6576000848401525b50505050565b6000610fd782610f7d565b610fe18185610f88565b9350610ff1818560208601610f99565b610ffa81610ca3565b840191505092915050565b60006110118383610fcc565b905092915050565b6000602082019050919050565b600061103182610f51565b61103b8185610f5c565b93508360208202850161104d85610f6d565b8060005b85811015611089578484038952815161106a8582611005565b945061107583611019565b925060208a01995050600181019050611051565b50829750879550505050505092915050565b600060208201905081810360008301526110b58184611026565b905092915050565b6000819050919050565b6110d0816110bd565b82525050565b60006020820190506110eb60008301846110c7565b92915050565b6110fa816110bd565b811461110557600080fd5b50565b600081359050611117816110f1565b92915050565b60008060006060848603121561113657611135610c31565b5b600061114486828701610c84565b935050602061115586828701611108565b925050604061116686828701611108565b9150509250925092565b600081519050919050565b600082825260208201905092915050565b6000819050602082019050919050565b6111a581610c5b565b82525050565b600060a0830160008301516111c3600086018261119c565b5060208301516111d6602086018261119c565b50604083015184820360408601526111ee8282610fcc565b915050606083015184820360608601526112088282610fcc565b915050608083015184820360808601526112228282610fcc565b9150508091505092915050565b600061123b83836111ab565b905092915050565b6000602082019050919050565b600061125b82611170565b611265818561117b565b9350836020820285016112778561118c565b8060005b858110156112b35784840389528151611294858261122f565b945061129f83611243565b925060208a0199505060018101905061127b565b50829750879550505050505092915050565b600060208201905081810360008301526112df8184611250565b905092915050565b600080604083850312156112fe576112fd610c31565b5b600061130c85828601610c84565b925050602061131d85828601611108565b9150509250929050565b61133081610c5b565b82525050565b600082825260208201905092915050565b600061135282610f7d565b61135c8185611336565b935061136c818560208601610f99565b61137581610ca3565b840191505092915050565b600060a0820190506113956000830188611327565b6113a26020830187611327565b81810360408301526113b48186611347565b905081810360608301526113c88185611347565b905081810360808301526113dc8184611347565b90509695505050505050565b60006020820190506113fd6000830184611327565b92915050565b600067ffffffffffffffff82111561141e5761141d610cb4565b5b602082029050602081019050919050565b600080fd5b600061144761144284610d2f565b610d14565b90508281526020810184848401111561146357611462610c9e565b5b61146e848285610f99565b509392505050565b600082601f83011261148b5761148a610c99565b5b815161149b848260208601611434565b91505092915050565b60006114b76114b284611403565b610d14565b905080838252602082019050602084028301858111156114da576114d961142f565b5b835b8181101561152157805167ffffffffffffffff8111156114ff576114fe610c99565b5b80860161150c8982611476565b855260208501945050506020810190506114dc565b5050509392505050565b600082601f8301126115405761153f610c99565b5b81516115508482602086016114a4565b91505092915050565b60006020828403121561156f5761156e610c31565b5b600082015167ffffffffffffffff81111561158d5761158c610c36565b5b6115998482850161152b565b91505092915050565b7f4e487b7100000000000000000000000000000000000000000000000000000000600052601160045260246000fd5b60006115dc826110bd565b91506115e7836110bd565b9250828210156115fa576115f96115a2565b5b828203905092915050565b7f4e487b7100000000000000000000000000000000000000000000000000000000600052603260045260246000fd5b7f4e487b7100000000000000000000000000000000000000000000000000000000600052602260045260246000fd5b6000600282049050600182168061167b57607f821691505b60208210810361168e5761168d611634565b5b50919050565b600061169f826110bd565b9150600082036116b2576116b16115a2565b5b600182039050919050565b60006116c8826110bd565b91507fffffffffffffffffffffffffffffffffffffffffffffffffffffffffffffffff82036116fa576116f96115a2565b5b60018201905091905056fea264697066735822122024e97ea99bce7676794925fa2aed4eec1585905f9e94ff199532c1d330cbfadb64736f6c634300080d0033",
  "immutableReferences": {},
  "source": "// SPDX-License-Identifier: GPL-3.0\r\npragma solidity >=0.7.0 <0.9.0;\r\n\r\ninterface IBlankNFT_ERC721 {\r\n    function getGetURIs(address _user) external view returns (string[] memory);\r\n\r\n    function getCreator() external view returns (address);\r\n}\r\n\r\ncontract UserCollection {\r\n    struct CollectionInfo {\r\n        address Nft;\r\n        address creator;\r\n        string collectionURI;\r\n        string name;\r\n        string symbol;\r\n    }\r\n\r\n    mapping(address => bool) public isTheNFTInit;\r\n    mapping(address => CollectionInfo[]) public collectionInfoByUser;\r\n\r\n    function createCollection(\r\n        address _Nft,\r\n        address _creator,\r\n        string memory collectionURI,\r\n        string memory _name,\r\n        string memory _symbol\r\n    ) external {\r\n        (\r\n            !isTheNFTInit[_Nft],\r\n            \"The collection for this nft was already created\"\r\n        );\r\n        isTheNFTInit[_Nft] = true;\r\n        collectionInfoByUser[_creator].push(\r\n            CollectionInfo(_Nft, _creator, collectionURI, _name, _symbol)\r\n        );\r\n    }\r\n\r\n    function getUserCollection(\r\n        address _owner,\r\n        uint256 _limit,\r\n        uint256 _offset\r\n    ) public view returns (CollectionInfo[] memory) {\r\n        uint256 totalCollection = collectionInfoByUser[_owner].length;\r\n        if (totalCollection == 0) {\r\n            return new CollectionInfo[](0);\r\n        }\r\n        uint256 size = _offset > _limit ? _limit : _offset;\r\n        CollectionInfo[] memory ownedCollectionList = new CollectionInfo[](\r\n            size\r\n        );\r\n\r\n        for (uint256 i = 0; i < size; i++) {\r\n            ownedCollectionList[i] = collectionInfoByUser[_owner][_offset - 1];\r\n            --_offset;\r\n        }\r\n\r\n        return ownedCollectionList;\r\n    }\r\n\r\n    function totalCollectionOf(address _user) public view returns (uint256) {\r\n        return collectionInfoByUser[_user].length;\r\n    }\r\n\r\n    function getUserNFTsUris(address _userNFT, address _user)\r\n        public\r\n        view\r\n        returns (string[] memory)\r\n    {\r\n        return IBlankNFT_ERC721(_userNFT).getGetURIs(_user);\r\n    }\r\n}\r\n",
  "sourcePath": "H:\\Portfolio\\truffle\\contracts\\NFTsGenerator\\UserCollection.sol",
  "compiler": {
    "name": "solc",
    "version": "0.8.13+commit.abaa5c0e.Emscripten.clang"
  },
  "schemaVersion": "3.4.7",
  "updatedAt": "2022-07-02T16:27:26.835Z",
  "networkType": "ethereum",
  "devdoc": {
    "kind": "dev",
    "methods": {},
    "version": 1
  },
  "userdoc": {
    "kind": "user",
    "methods": {},
    "version": 1
  }
}